{
  "contractName": "Pixel4Impact",
  "abi": [
    {
      "constant": true,
      "inputs": [],
      "name": "name",
      "outputs": [
        {
          "name": "",
          "type": "string"
        }
      ],
      "payable": false,
      "stateMutability": "view",
      "type": "function"
    },
    {
      "constant": true,
      "inputs": [
        {
          "name": "_tokenId",
          "type": "uint256"
        }
      ],
      "name": "getApproved",
      "outputs": [
        {
          "name": "",
          "type": "address"
        }
      ],
      "payable": false,
      "stateMutability": "view",
      "type": "function"
    },
    {
      "constant": false,
      "inputs": [
        {
          "name": "_to",
          "type": "address"
        },
        {
          "name": "_tokenId",
          "type": "uint256"
        }
      ],
      "name": "approve",
      "outputs": [],
      "payable": false,
      "stateMutability": "nonpayable",
      "type": "function"
    },
    {
      "constant": true,
      "inputs": [],
      "name": "totalSupply",
      "outputs": [
        {
          "name": "",
          "type": "uint256"
        }
      ],
      "payable": false,
      "stateMutability": "view",
      "type": "function"
    },
    {
      "constant": true,
      "inputs": [],
      "name": "minDonation",
      "outputs": [
        {
          "name": "",
          "type": "uint256"
        }
      ],
      "payable": false,
      "stateMutability": "view",
      "type": "function"
    },
    {
      "constant": false,
      "inputs": [
        {
          "name": "_from",
          "type": "address"
        },
        {
          "name": "_to",
          "type": "address"
        },
        {
          "name": "_tokenId",
          "type": "uint256"
        }
      ],
      "name": "transferFrom",
      "outputs": [],
      "payable": false,
      "stateMutability": "nonpayable",
      "type": "function"
    },
    {
      "constant": true,
      "inputs": [
        {
          "name": "_owner",
          "type": "address"
        },
        {
          "name": "_index",
          "type": "uint256"
        }
      ],
      "name": "tokenOfOwnerByIndex",
      "outputs": [
        {
          "name": "",
          "type": "uint256"
        }
      ],
      "payable": false,
      "stateMutability": "view",
      "type": "function"
    },
    {
      "constant": false,
      "inputs": [
        {
          "name": "_from",
          "type": "address"
        },
        {
          "name": "_to",
          "type": "address"
        },
        {
          "name": "_tokenId",
          "type": "uint256"
        }
      ],
      "name": "safeTransferFrom",
      "outputs": [],
      "payable": false,
      "stateMutability": "nonpayable",
      "type": "function"
    },
    {
      "constant": true,
      "inputs": [
        {
          "name": "_tokenId",
          "type": "uint256"
        }
      ],
      "name": "exists",
      "outputs": [
        {
          "name": "",
          "type": "bool"
        }
      ],
      "payable": false,
      "stateMutability": "view",
      "type": "function"
    },
    {
      "constant": true,
      "inputs": [
        {
          "name": "_index",
          "type": "uint256"
        }
      ],
      "name": "tokenByIndex",
      "outputs": [
        {
          "name": "",
          "type": "uint256"
        }
      ],
      "payable": false,
      "stateMutability": "view",
      "type": "function"
    },
    {
      "constant": true,
      "inputs": [
        {
          "name": "_tokenId",
          "type": "uint256"
        }
      ],
      "name": "ownerOf",
      "outputs": [
        {
          "name": "",
          "type": "address"
        }
      ],
      "payable": false,
      "stateMutability": "view",
      "type": "function"
    },
    {
      "constant": true,
      "inputs": [],
      "name": "yPixels",
      "outputs": [
        {
          "name": "",
          "type": "uint256"
        }
      ],
      "payable": false,
      "stateMutability": "view",
      "type": "function"
    },
    {
      "constant": true,
      "inputs": [
        {
          "name": "_owner",
          "type": "address"
        }
      ],
      "name": "balanceOf",
      "outputs": [
        {
          "name": "",
          "type": "uint256"
        }
      ],
      "payable": false,
      "stateMutability": "view",
      "type": "function"
    },
    {
      "constant": true,
      "inputs": [],
      "name": "metadataUri",
      "outputs": [
        {
          "name": "",
          "type": "string"
        }
      ],
      "payable": false,
      "stateMutability": "view",
      "type": "function"
    },
    {
      "constant": true,
      "inputs": [],
      "name": "owner",
      "outputs": [
        {
          "name": "",
          "type": "address"
        }
      ],
      "payable": false,
      "stateMutability": "view",
      "type": "function"
    },
    {
      "constant": true,
      "inputs": [],
      "name": "symbol",
      "outputs": [
        {
          "name": "",
          "type": "string"
        }
      ],
      "payable": false,
      "stateMutability": "view",
      "type": "function"
    },
    {
      "constant": false,
      "inputs": [
        {
          "name": "_to",
          "type": "address"
        },
        {
          "name": "_approved",
          "type": "bool"
        }
      ],
      "name": "setApprovalForAll",
      "outputs": [],
      "payable": false,
      "stateMutability": "nonpayable",
      "type": "function"
    },
    {
      "constant": false,
      "inputs": [
        {
          "name": "_from",
          "type": "address"
        },
        {
          "name": "_to",
          "type": "address"
        },
        {
          "name": "_tokenId",
          "type": "uint256"
        },
        {
          "name": "_data",
          "type": "bytes"
        }
      ],
      "name": "safeTransferFrom",
      "outputs": [],
      "payable": false,
      "stateMutability": "nonpayable",
      "type": "function"
    },
    {
      "constant": true,
      "inputs": [
        {
          "name": "_tokenId",
          "type": "uint256"
        }
      ],
      "name": "tokenURI",
      "outputs": [
        {
          "name": "",
          "type": "string"
        }
      ],
      "payable": false,
      "stateMutability": "view",
      "type": "function"
    },
    {
      "constant": true,
      "inputs": [],
      "name": "xPixels",
      "outputs": [
        {
          "name": "",
          "type": "uint256"
        }
      ],
      "payable": false,
      "stateMutability": "view",
      "type": "function"
    },
    {
      "constant": true,
      "inputs": [
        {
          "name": "_owner",
          "type": "address"
        },
        {
          "name": "_operator",
          "type": "address"
        }
      ],
      "name": "isApprovedForAll",
      "outputs": [
        {
          "name": "",
          "type": "bool"
        }
      ],
      "payable": false,
      "stateMutability": "view",
      "type": "function"
    },
    {
      "constant": false,
      "inputs": [
        {
          "name": "newOwner",
          "type": "address"
        }
      ],
      "name": "transferOwnership",
      "outputs": [],
      "payable": false,
      "stateMutability": "nonpayable",
      "type": "function"
    },
    {
      "inputs": [
        {
          "name": "_xPixels",
          "type": "uint256"
        },
        {
          "name": "_yPixels",
          "type": "uint256"
        },
        {
          "name": "_minDonation",
          "type": "uint256"
        },
        {
          "name": "_metadataUri",
          "type": "string"
        }
      ],
      "payable": false,
      "stateMutability": "nonpayable",
      "type": "constructor"
    },
    {
      "payable": true,
      "stateMutability": "payable",
      "type": "fallback"
    },
    {
      "anonymous": false,
      "inputs": [
        {
          "indexed": false,
          "name": "x",
          "type": "uint256"
        },
        {
          "indexed": false,
          "name": "y",
          "type": "uint256"
        },
        {
          "indexed": false,
          "name": "color",
          "type": "string"
        },
        {
          "indexed": false,
          "name": "donation",
          "type": "uint256"
        },
        {
          "indexed": false,
          "name": "contributor",
          "type": "address"
        }
      ],
      "name": "PixelCreated",
      "type": "event"
    },
    {
      "anonymous": false,
      "inputs": [
        {
          "indexed": false,
          "name": "value",
          "type": "string"
        }
      ],
      "name": "DebugStr",
      "type": "event"
    },
    {
      "anonymous": false,
      "inputs": [
        {
          "indexed": false,
          "name": "value",
          "type": "uint256"
        }
      ],
      "name": "DebugInt",
      "type": "event"
    },
    {
      "anonymous": false,
      "inputs": [
        {
          "indexed": true,
          "name": "previousOwner",
          "type": "address"
        },
        {
          "indexed": true,
          "name": "newOwner",
          "type": "address"
        }
      ],
      "name": "OwnershipTransferred",
      "type": "event"
    },
    {
      "anonymous": false,
      "inputs": [
        {
          "indexed": true,
          "name": "_from",
          "type": "address"
        },
        {
          "indexed": true,
          "name": "_to",
          "type": "address"
        },
        {
          "indexed": false,
          "name": "_tokenId",
          "type": "uint256"
        }
      ],
      "name": "Transfer",
      "type": "event"
    },
    {
      "anonymous": false,
      "inputs": [
        {
          "indexed": true,
          "name": "_owner",
          "type": "address"
        },
        {
          "indexed": true,
          "name": "_approved",
          "type": "address"
        },
        {
          "indexed": false,
          "name": "_tokenId",
          "type": "uint256"
        }
      ],
      "name": "Approval",
      "type": "event"
    },
    {
      "anonymous": false,
      "inputs": [
        {
          "indexed": true,
          "name": "_owner",
          "type": "address"
        },
        {
          "indexed": true,
          "name": "_operator",
          "type": "address"
        },
        {
          "indexed": false,
          "name": "_approved",
          "type": "bool"
        }
      ],
      "name": "ApprovalForAll",
      "type": "event"
    },
    {
      "constant": false,
      "inputs": [
        {
          "name": "_x",
          "type": "uint256"
        },
        {
          "name": "_y",
          "type": "uint256"
        },
        {
          "name": "_color",
          "type": "string"
        }
      ],
      "name": "donatePixel",
      "outputs": [],
      "payable": true,
      "stateMutability": "payable",
      "type": "function"
    },
    {
      "constant": true,
      "inputs": [],
      "name": "getDetails",
      "outputs": [
        {
          "name": "_xPixels",
          "type": "uint256"
        },
        {
          "name": "_yPixels",
          "type": "uint256"
        },
        {
          "name": "_minDonation",
          "type": "uint256"
        },
        {
          "name": "_metadataUri",
          "type": "string"
        }
      ],
      "payable": false,
      "stateMutability": "view",
      "type": "function"
    },
    {
      "constant": true,
      "inputs": [],
      "name": "getNumPixelsTaken",
      "outputs": [
        {
          "name": "",
          "type": "uint256"
        }
      ],
      "payable": false,
      "stateMutability": "view",
      "type": "function"
    },
    {
      "constant": true,
      "inputs": [
        {
          "name": "_index",
          "type": "uint256"
        }
      ],
      "name": "getPixelTakenByIndex",
      "outputs": [
        {
          "name": "x",
          "type": "uint256"
        },
        {
          "name": "y",
          "type": "uint256"
        },
        {
          "name": "color",
          "type": "string"
        },
        {
          "name": "donation",
          "type": "uint256"
        }
      ],
      "payable": false,
      "stateMutability": "view",
      "type": "function"
    },
    {
      "constant": true,
      "inputs": [],
      "name": "getNumDonators",
      "outputs": [
        {
          "name": "",
          "type": "uint256"
        }
      ],
      "payable": false,
      "stateMutability": "view",
      "type": "function"
    },
    {
      "constant": true,
      "inputs": [
        {
          "name": "_index",
          "type": "uint256"
        }
      ],
      "name": "getDonatorAddressByIndex",
      "outputs": [
        {
          "name": "",
          "type": "address"
        }
      ],
      "payable": false,
      "stateMutability": "view",
      "type": "function"
    }
  ],
  "bytecode": "0x60806040523480156200001157600080fd5b5060405162001b1538038062001b1583398101604081815282516020808501518386015160608701518587018652600c87527f506978656c34496d7061637400000000000000000000000000000000000000008488019081528651808801909752600387527f50344900000000000000000000000000000000000000000000000000000000009487019490945286519497929691959201939092620000ba916004919062000114565b508051620000d090600590602084019062000114565b5050600b8054600160a060020a0319163317905550600c849055600d839055600e82905580516200010990600f90602084019062000114565b5050505050620001b9565b828054600181600116156101000203166002900490600052602060002090601f016020900481019282601f106200015757805160ff191683800117855562000187565b8280016001018555821562000187579182015b82811115620001875782518255916020019190600101906200016a565b506200019592915062000199565b5090565b620001b691905b80821115620001955760008155600101620001a0565b90565b61194c80620001c96000396000f3006080604052600436106101695763ffffffff7c010000000000000000000000000000000000000000000000000000000060003504166306fdde03811461016b578063081812fc146101f5578063095ea7b31461022957806318160ddd1461024d5780631c0e02251461027457806323b872dd146102895780632f745c59146102b35780633a1c6aee146102d757806342842e0e1461032a5780634f558e79146103545780634f6ccce7146103805780636352211e146103985780636c2d1c3a146103b057806370a08231146103c557806377a4d559146103e657806380513201146103fb5780638da5cb5b14610413578063956da0141461042857806395d89b411461043d578063a22cb46514610452578063b88d4fde14610478578063c87b56dd146104e7578063cf9b50bf146104ff578063d009c53f14610514578063e5cc7e0d14610529578063e985e9c5146105ce578063f2fde38b146105f5578063fbbf93a014610616575b005b34801561017757600080fd5b50610180610679565b6040805160208082528351818301528351919283929083019185019080838360005b838110156101ba5781810151838201526020016101a2565b50505050905090810190601f1680156101e75780820380516001836020036101000a031916815260200191505b509250505060405180910390f35b34801561020157600080fd5b5061020d600435610710565b60408051600160a060020a039092168252519081900360200190f35b34801561023557600080fd5b50610169600160a060020a036004351660243561072b565b34801561025957600080fd5b5061026261081d565b60408051918252519081900360200190f35b34801561028057600080fd5b50610262610823565b34801561029557600080fd5b50610169600160a060020a0360043581169060243516604435610829565b3480156102bf57600080fd5b50610262600160a060020a03600435166024356108d8565b604080516020600460443581810135601f81018490048402850184019095528484526101699482359460248035953695946064949201919081908401838280828437509497506109259650505050505050565b34801561033657600080fd5b50610169600160a060020a0360043581169060243516604435610c14565b34801561036057600080fd5b5061036c600435610c4c565b604080519115158252519081900360200190f35b34801561038c57600080fd5b50610262600435610c69565b3480156103a457600080fd5b5061020d600435610c9e565b3480156103bc57600080fd5b50610262610cc8565b3480156103d157600080fd5b50610262600160a060020a0360043516610cce565b3480156103f257600080fd5b50610180610d01565b34801561040757600080fd5b5061020d600435610d8f565b34801561041f57600080fd5b5061020d610dbb565b34801561043457600080fd5b50610262610dca565b34801561044957600080fd5b50610180610dd0565b34801561045e57600080fd5b50610169600160a060020a03600435166024351515610e31565b34801561048457600080fd5b50604080516020601f60643560048181013592830184900484028501840190955281845261016994600160a060020a038135811695602480359092169560443595369560849401918190840183828082843750949750610eb59650505050505050565b3480156104f357600080fd5b50610180600435610ef4565b34801561050b57600080fd5b50610262610fa9565b34801561052057600080fd5b50610262610faf565b34801561053557600080fd5b50610541600435610fb5565b6040518085815260200184815260200180602001838152602001828103825284818151815260200191508051906020019080838360005b83811015610590578181015183820152602001610578565b50505050905090810190601f1680156105bd5780820380516001836020036101000a031916815260200191505b509550505050505060405180910390f35b3480156105da57600080fd5b5061036c600160a060020a036004358116906024351661109b565b34801561060157600080fd5b50610169600160a060020a03600435166110c9565b34801561062257600080fd5b5061062b61115e565b60405180858152602001848152602001838152602001806020018281038252838181518152602001915080519060200190808383600083811015610590578181015183820152602001610578565b60048054604080516020601f60026000196101006001881615020190951694909404938401819004810282018101909252828152606093909290918301828280156107055780601f106106da57610100808354040283529160200191610705565b820191906000526020600020905b8154815290600101906020018083116106e857829003601f168201915b505050505090505b90565b600090815260016020526040902054600160a060020a031690565b600061073682610c9e565b9050600160a060020a03838116908216141561075157600080fd5b33600160a060020a038216148061076d575061076d813361109b565b151561077857600080fd5b600061078383610710565b600160a060020a03161415806107a15750600160a060020a03831615155b1561081857600082815260016020908152604091829020805473ffffffffffffffffffffffffffffffffffffffff1916600160a060020a03878116918217909255835186815293519093918516927f8c5be1e5ebec7d5bd14f71427d1e84f3dd0314c0f7b2291e5b200ac8c7c3b925928290030190a35b505050565b60085490565b600e5481565b80610834338261121a565b151561083f57600080fd5b600160a060020a038416151561085457600080fd5b600160a060020a038316151561086957600080fd5b6108738483611279565b61087d8483611327565b6108878383611460565b82600160a060020a031684600160a060020a03167fddf252ad1be2c89b69c2b068fc378daa952ba7f163c4a11628f55a4df523b3ef846040518082815260200191505060405180910390a350505050565b60006108e383610cce565b82106108ee57600080fd5b600160a060020a038316600090815260066020526040902080548390811061091257fe5b9060005260206000200154905092915050565b600061092f61183f565b60008581526011602090815260408083208784529091529020548590859060ff161561095a57600080fd5b600c54821061096857600080fd5b600d54811061097657600080fd5b600e5434101561098557600080fd5b6040805188815290517f66adb6b61689eb20abb744cb25721504c5861b418a77988e230daee31f7187e29181900360200190a16040805187815290517f66adb6b61689eb20abb744cb25721504c5861b418a77988e230daee31f7187e29181900360200190a17fbeec2b037dad1d174192cfe357f7f7cafa04d5d6712c3cdd3b636ca22e61af47856040518080602001828103825283818151815260200191508051906020019080838360005b83811015610a4a578181015183820152602001610a32565b50505050905090810190601f168015610a775780820380516001836020036101000a031916815260200191505b509250505060405180910390a16040805134815290517f66adb6b61689eb20abb744cb25721504c5861b418a77988e230daee31f7187e29181900360200190a1610abf6114a9565b9350610acb33856114b8565b604080516080810182528881526020808201898152928201888152346060840152601080546001810180835560009290925284517f1b6847dc741a1b0cd08d278845f9d819d87b734759afb55fe2de5cb82a9ae672600490920291820190815595517f1b6847dc741a1b0cd08d278845f9d819d87b734759afb55fe2de5cb82a9ae67382015591518051949850909488949093610b8c937f1b6847dc741a1b0cd08d278845f9d819d87b734759afb55fe2de5cb82a9ae67401920190611868565b506060919091015160039091015550505060009485525050601160209081526040808520938552929052508120805460ff191660019081179091556012805491820181559091527fbb8a6a4669ba250d26cd7a459eca9d215f8307e33aebe50379bc5a3617ec344401805473ffffffffffffffffffffffffffffffffffffffff191633179055565b80610c1f338261121a565b1515610c2a57600080fd5b610c468484846020604051908101604052806000815250610eb5565b50505050565b600090815260208190526040902054600160a060020a0316151590565b6000610c7361081d565b8210610c7e57600080fd5b6008805483908110610c8c57fe5b90600052602060002001549050919050565b600081815260208190526040812054600160a060020a0316801515610cc257600080fd5b92915050565b600d5481565b6000600160a060020a0382161515610ce557600080fd5b50600160a060020a031660009081526002602052604090205490565b600f805460408051602060026001851615610100026000190190941693909304601f81018490048402820184019092528181529291830182828015610d875780601f10610d5c57610100808354040283529160200191610d87565b820191906000526020600020905b815481529060010190602001808311610d6a57829003601f168201915b505050505081565b6000601282815481101515610da057fe5b600091825260209091200154600160a060020a031692915050565b600b54600160a060020a031681565b60105490565b60058054604080516020601f60026000196101006001881615020190951694909404938401819004810282018101909252828152606093909290918301828280156107055780601f106106da57610100808354040283529160200191610705565b600160a060020a038216331415610e4757600080fd5b336000818152600360209081526040808320600160a060020a03871680855290835292819020805460ff1916861515908117909155815190815290519293927f17307eab39ab6107e8899845ad3d59bd9653f200f220920489ca2b5937696c31929181900390910190a35050565b81610ec0338261121a565b1515610ecb57600080fd5b610ed6858585610829565b610ee285858585611507565b1515610eed57600080fd5b5050505050565b6060610eff82610c4c565b1515610f0a57600080fd5b6000828152600a602090815260409182902080548351601f600260001961010060018616150201909316929092049182018490048402810184019094528084529091830182828015610f9d5780601f10610f7257610100808354040283529160200191610f9d565b820191906000526020600020905b815481529060010190602001808311610f8057829003601f168201915b50505050509050919050565b600c5481565b60125490565b6000806060600080601086815481101515610fcc57fe5b9060005260206000209060040201905080600001548160010154826002018360030154818054600181600116156101000203166002900480601f0160208091040260200160405190810160405280929190818152602001828054600181600116156101000203166002900480156110845780601f1061105957610100808354040283529160200191611084565b820191906000526020600020905b81548152906001019060200180831161106757829003601f168201915b505050505091509450945094509450509193509193565b600160a060020a03918216600090815260036020908152604080832093909416825291909152205460ff1690565b600b54600160a060020a031633146110e057600080fd5b600160a060020a03811615156110f557600080fd5b600b54604051600160a060020a038084169216907f8be0079c531659141344cd1fd0a4f28419497f9722a3daafe3b4186f6b6457e090600090a3600b805473ffffffffffffffffffffffffffffffffffffffff1916600160a060020a0392909216919091179055565b60008060006060600c54600d54600e54600f808054600181600116156101000203166002900480601f0160208091040260200160405190810160405280929190818152602001828054600181600116156101000203166002900480156112055780601f106111da57610100808354040283529160200191611205565b820191906000526020600020905b8154815290600101906020018083116111e857829003601f168201915b50505050509050935093509350935090919293565b60008061122683610c9e565b905080600160a060020a031684600160a060020a03161480611261575083600160a060020a031661125684610710565b600160a060020a0316145b806112715750611271818561109b565b949350505050565b81600160a060020a031661128c82610c9e565b600160a060020a03161461129f57600080fd5b600081815260016020526040902054600160a060020a031615611323576000818152600160209081526040808320805473ffffffffffffffffffffffffffffffffffffffff1916905580518481529051600160a060020a038616927f8c5be1e5ebec7d5bd14f71427d1e84f3dd0314c0f7b2291e5b200ac8c7c3b925928290030190a35b5050565b60008060006113368585611690565b600084815260076020908152604080832054600160a060020a038916845260069092529091205490935061137190600163ffffffff61172516565b600160a060020a03861660009081526006602052604090208054919350908390811061139957fe5b90600052602060002001549050806006600087600160a060020a0316600160a060020a03168152602001908152602001600020848154811015156113d957fe5b6000918252602080832090910192909255600160a060020a038716815260069091526040812080548490811061140b57fe5b6000918252602080832090910192909255600160a060020a03871681526006909152604090208054906114429060001983016118e6565b50600093845260076020526040808520859055908452909220555050565b600061146c8383611737565b50600160a060020a039091166000908152600660209081526040808320805460018101825590845282842081018590559383526007909152902055565b60006114b361081d565b905090565b6114c282826117c6565b600880546000838152600960205260408120829055600182018355919091527ff3f7a9fe364faab93b216da50a3214154f22a0a2b415b23a84c8169e8b636ee3015550565b60008061151c85600160a060020a031661182a565b151561152b5760019150611687565b84600160a060020a031663f0b9e5ba8786866040518463ffffffff167c01000000000000000000000000000000000000000000000000000000000281526004018084600160a060020a0316600160a060020a0316815260200183815260200180602001828103825283818151815260200191508051906020019080838360005b838110156115c35781810151838201526020016115ab565b50505050905090810190601f1680156115f05780820380516001836020036101000a031916815260200191505b50945050505050602060405180830381600087803b15801561161157600080fd5b505af1158015611625573d6000803e3d6000fd5b505050506040513d602081101561163b57600080fd5b50517fffffffff0000000000000000000000000000000000000000000000000000000081167ff0b9e5ba0000000000000000000000000000000000000000000000000000000014925090505b50949350505050565b81600160a060020a03166116a382610c9e565b600160a060020a0316146116b657600080fd5b600160a060020a0382166000908152600260205260409020546116e090600163ffffffff61172516565b600160a060020a039092166000908152600260209081526040808320949094559181529081905220805473ffffffffffffffffffffffffffffffffffffffff19169055565b60008282111561173157fe5b50900390565b600081815260208190526040902054600160a060020a03161561175957600080fd5b600081815260208181526040808320805473ffffffffffffffffffffffffffffffffffffffff1916600160a060020a038716908117909155835260029091529020546117a6906001611832565b600160a060020a0390921660009081526002602052604090209190915550565b600160a060020a03821615156117db57600080fd5b6117e58282611460565b604080518281529051600160a060020a038416916000917fddf252ad1be2c89b69c2b068fc378daa952ba7f163c4a11628f55a4df523b3ef9181900360200190a35050565b6000903b1190565b81810182811015610cc257fe5b608060405190810160405280600081526020016000815260200160608152602001600081525090565b828054600181600116156101000203166002900490600052602060002090601f016020900481019282601f106118a957805160ff19168380011785556118d6565b828001600101855582156118d6579182015b828111156118d65782518255916020019190600101906118bb565b506118e2929150611906565b5090565b815481835581811115610818576000838152602090206108189181019083015b61070d91905b808211156118e2576000815560010161190c5600a165627a7a7230582070b006da6c21f936e88f64bbaa5d7985a86196b23a8e56903badb6da2dffefa20029",
  "source": "pragma solidity ^0.4.21;\n\nimport \"../node_modules/zeppelin-solidity/contracts/ownership/Ownable.sol\";\nimport \"../node_modules/zeppelin-solidity/contracts/token/ERC721/ERC721Token.sol\";\n\ncontract Pixel4Impact is ERC721Token, Ownable {\n\n    uint public xPixels;\n    uint public yPixels;\n    uint public minDonation;\n    string public metadataUri;\n\n\n    function Pixel4Impact(uint _xPixels, uint _yPixels, uint _minDonation, string _metadataUri) ERC721Token(\"Pixel4Impact\", \"P4I\") public { \n        xPixels = _xPixels;\n        yPixels = _yPixels;\n        minDonation = _minDonation;\n        metadataUri = _metadataUri;\n    }\n\n    struct Pixel {\n        uint x;\n        uint y;\n        string color;\n        uint donation;\n    }\n    \n    Pixel[] pixels;\n    mapping(uint => mapping(uint => bool)) pixelsTaken;\n    address[] donators;\n\n    \n    event PixelCreated(uint x, uint y, string color, uint donation, address contributor);\n    event DebugStr(string value);\n    event DebugInt(uint value);\n\n    modifier tokenAvailable(uint x, uint y) {\n        require(!pixelsTaken[x][y]);\n        require(x < xPixels);\n        require(y < yPixels);\n        _;\n    }\n\n    modifier isMinDonation() {\n        require(msg.value >= minDonation);\n        _;\n    }\n\n\n    function donatePixel(uint _x, uint _y, string _color) public payable tokenAvailable(_x, _y) isMinDonation() {\n        emit DebugInt(_x);\n        emit DebugInt(_y);\n        emit DebugStr(_color);\n        emit DebugInt(msg.value);\n        uint256 newTokenId = _getNextTokenId();\n        _mint(msg.sender, newTokenId);\n        Pixel memory pixel = Pixel({\n            x: _x,\n            y: _y,\n            color: _color,\n            donation: msg.value\n        });\n        pixels.push(pixel);\n        pixelsTaken[_x][_y] = true;\n        donators.push(msg.sender);\n        // owner.transfer(msg.value);\n    }\n\n    function _getNextTokenId() private view returns (uint256) {\n        return totalSupply();\n    }\n\n    function getDetails() public view returns(uint _xPixels, uint _yPixels, uint _minDonation, string _metadataUri) {\n        return (uint(xPixels), uint(yPixels), minDonation, metadataUri);\n    }\n    function getNumPixelsTaken() public view returns(uint) {\n        return pixels.length;\n    }\n\n    function getPixelTakenByIndex(uint _index) public view returns(uint x, uint y, string color, uint donation) {\n        Pixel storage pixel = pixels[_index];\n        return (pixel.x, pixel.y, pixel.color, pixel.donation);\n    }\n\n    function getNumDonators() public view returns(uint) {\n        return donators.length;\n    }\n    function getDonatorAddressByIndex(uint _index) public view returns(address) {\n        return donators[_index];\n    }\n\n    function () external payable {\n        //TODO;\n    }\n\n    // function withdraw(uint amount) onlyOwner returns(bool) {\n    //     require(amount < this.balance);\n    //     owner.transfer(amount);\n    //     return true;\n\n    // }\n\n}",
  "sourcePath": "/Users/joaoaguiam/Documents/Joao2017/Dev/pronostic/contracts/Pixel4Impact.sol",
  "compiler": {
    "name": "solc",
    "version": "0.4.24+commit.e67f0147.Emscripten.clang"
  },
  "schemaVersion": "2.0.0",
  "updatedAt": "2018-05-29T02:47:22.063Z"
}