{
  "contractName": "WCwagers",
  "abi": [
    {
      "constant": true,
      "inputs": [
        {
          "name": "",
          "type": "uint256"
        }
      ],
      "name": "participants",
      "outputs": [
        {
          "name": "",
          "type": "address"
        }
      ],
      "payable": false,
      "stateMutability": "view",
      "type": "function"
    },
    {
      "constant": true,
      "inputs": [],
      "name": "potSize",
      "outputs": [
        {
          "name": "",
          "type": "uint256"
        }
      ],
      "payable": false,
      "stateMutability": "view",
      "type": "function"
    },
    {
      "constant": true,
      "inputs": [],
      "name": "owner",
      "outputs": [
        {
          "name": "",
          "type": "address"
        }
      ],
      "payable": false,
      "stateMutability": "view",
      "type": "function"
    },
    {
      "constant": true,
      "inputs": [],
      "name": "wagerSize",
      "outputs": [
        {
          "name": "",
          "type": "uint256"
        }
      ],
      "payable": false,
      "stateMutability": "view",
      "type": "function"
    },
    {
      "constant": false,
      "inputs": [
        {
          "name": "newOwner",
          "type": "address"
        }
      ],
      "name": "transferOwnership",
      "outputs": [],
      "payable": false,
      "stateMutability": "nonpayable",
      "type": "function"
    },
    {
      "inputs": [
        {
          "name": "_name",
          "type": "string"
        },
        {
          "name": "_wagerSize",
          "type": "uint256"
        }
      ],
      "payable": false,
      "stateMutability": "nonpayable",
      "type": "constructor"
    },
    {
      "anonymous": false,
      "inputs": [
        {
          "indexed": false,
          "name": "participant",
          "type": "address"
        }
      ],
      "name": "ParticipantAdded",
      "type": "event"
    },
    {
      "anonymous": false,
      "inputs": [
        {
          "indexed": false,
          "name": "value",
          "type": "string"
        }
      ],
      "name": "DebugStr",
      "type": "event"
    },
    {
      "anonymous": false,
      "inputs": [
        {
          "indexed": false,
          "name": "value",
          "type": "uint256"
        }
      ],
      "name": "DebugInt",
      "type": "event"
    },
    {
      "anonymous": false,
      "inputs": [
        {
          "indexed": true,
          "name": "previousOwner",
          "type": "address"
        },
        {
          "indexed": true,
          "name": "newOwner",
          "type": "address"
        }
      ],
      "name": "OwnershipTransferred",
      "type": "event"
    },
    {
      "constant": false,
      "inputs": [],
      "name": "toggleTimePast",
      "outputs": [],
      "payable": false,
      "stateMutability": "nonpayable",
      "type": "function"
    },
    {
      "constant": true,
      "inputs": [],
      "name": "getContestInfo",
      "outputs": [
        {
          "name": "_wagerSize",
          "type": "uint256"
        },
        {
          "name": "_contestName",
          "type": "string"
        },
        {
          "name": "_firstPhaseDate",
          "type": "uint256"
        }
      ],
      "payable": false,
      "stateMutability": "view",
      "type": "function"
    },
    {
      "constant": true,
      "inputs": [],
      "name": "getWagerSize",
      "outputs": [
        {
          "name": "",
          "type": "uint256"
        }
      ],
      "payable": false,
      "stateMutability": "view",
      "type": "function"
    },
    {
      "constant": false,
      "inputs": [],
      "name": "registerParticipant",
      "outputs": [],
      "payable": true,
      "stateMutability": "payable",
      "type": "function"
    },
    {
      "constant": false,
      "inputs": [
        {
          "name": "_URL",
          "type": "string"
        },
        {
          "name": "_phase",
          "type": "string"
        }
      ],
      "name": "writeURL",
      "outputs": [],
      "payable": false,
      "stateMutability": "nonpayable",
      "type": "function"
    },
    {
      "constant": true,
      "inputs": [
        {
          "name": "_phase",
          "type": "string"
        }
      ],
      "name": "getOwnURL",
      "outputs": [
        {
          "name": "",
          "type": "string"
        }
      ],
      "payable": false,
      "stateMutability": "view",
      "type": "function"
    },
    {
      "constant": true,
      "inputs": [
        {
          "name": "_participant",
          "type": "address"
        },
        {
          "name": "_phase",
          "type": "string"
        }
      ],
      "name": "getURL",
      "outputs": [
        {
          "name": "",
          "type": "string"
        }
      ],
      "payable": false,
      "stateMutability": "view",
      "type": "function"
    },
    {
      "constant": true,
      "inputs": [],
      "name": "getParticipants",
      "outputs": [
        {
          "name": "",
          "type": "address[]"
        }
      ],
      "payable": false,
      "stateMutability": "view",
      "type": "function"
    },
    {
      "constant": false,
      "inputs": [
        {
          "name": "amount",
          "type": "uint256"
        }
      ],
      "name": "payWinner",
      "outputs": [
        {
          "name": "",
          "type": "bool"
        }
      ],
      "payable": false,
      "stateMutability": "nonpayable",
      "type": "function"
    }
  ],
  "bytecode": "0x608060405234801561001057600080fd5b50604051610f36380380610f3683398101604052805160208083015160008054600160a060020a031916331790556605ebd312a02aaa810260035591909201805190926100629160029185019061019a565b5050604080517f47726f757000000000000000000000000000000000000000000000000000000081526001600580830182905283519283900360259081018420635b228d7c90557f526f756e643136000000000000000000000000000000000000000000000000008452600784018390528451938490036027018420635b37895c90557f51756172746572730000000000000000000000000000000000000000000000008452600884018390528451938490036028018420635b3f725c90557f53656d69730000000000000000000000000000000000000000000000000000008452908301829052835192839003018220635b44f09c90557f46696e616c730000000000000000000000000000000000000000000000000000825260068201529051908190036026019020635b49fe5c905550610235565b828054600181600116156101000203166002900490600052602060002090601f016020900481019282601f106101db57805160ff1916838001178555610208565b82800160010185558215610208579182015b828111156102085782518255916020019190600101906101ed565b50610214929150610218565b5090565b61023291905b80821115610214576000815560010161021e565b90565b610cf2806102446000396000f3006080604052600436106100cf5763ffffffff7c0100000000000000000000000000000000000000000000000000000000600035041663138da57581146100d457806335c1d349146100fb5780635aa68ac01461012f578063647911961461019457806368b6d55d1461022f5780636b76708f1461024457806385b8dae4146103205780638da5cb5b146103b9578063a5c0449f146103ce578063ae038601146103fa578063b0f411fb1461040f578063ccfc811b14610424578063cd75248e1461042c578063f2fde38b14610485575b600080fd5b3480156100e057600080fd5b506100e96104a6565b60408051918252519081900360200190f35b34801561010757600080fd5b506101136004356104ad565b60408051600160a060020a039092168252519081900360200190f35b34801561013b57600080fd5b506101446104d5565b60408051602080825283518183015283519192839290830191858101910280838360005b83811015610180578181015183820152602001610168565b505050509050019250505060405180910390f35b3480156101a057600080fd5b506101a9610537565b6040518084815260200180602001838152602001828103825284818151815260200191508051906020019080838360005b838110156101f25781810151838201526020016101da565b50505050905090810190601f16801561021f5780820380516001836020036101000a031916815260200191505b5094505050505060405180910390f35b34801561023b57600080fd5b506100e9610615565b34801561025057600080fd5b5060408051602060046024803582810135601f81018590048502860185019096528585526102ab958335600160a060020a031695369560449491939091019190819084018382808284375094975061061b9650505050505050565b6040805160208082528351818301528351919283929083019185019080838360005b838110156102e55781810151838201526020016102cd565b50505050905090810190601f1680156103125780820380516001836020036101000a031916815260200191505b509250505060405180910390f35b34801561032c57600080fd5b506040805160206004803580820135601f81018490048402850184019095528484526103b794369492936024939284019190819084018382808284375050604080516020601f89358b018035918201839004830284018301909452808352979a9998810197919650918201945092508291508401838280828437509497506107a69650505050505050565b005b3480156103c557600080fd5b506101136108b5565b3480156103da57600080fd5b506103e66004356108c4565b604080519115158252519081900360200190f35b34801561040657600080fd5b506100e961092b565b34801561041b57600080fd5b506103b7610931565b6103b76109e6565b34801561043857600080fd5b506040805160206004803580820135601f81018490048402850184019095528484526102ab943694929360249392840191908190840183828082843750949750610a839650505050505050565b34801561049157600080fd5b506103b7600160a060020a0360043516610b9a565b6003545b90565b60058054829081106104bb57fe5b600091825260209091200154600160a060020a0316905081565b6060600580548060200260200160405190810160405280929190818152602001828054801561052d57602002820191906000526020600020905b8154600160a060020a0316815260019091019060200180831161050f575b5050505050905090565b600354604080517f47726f7570000000000000000000000000000000000000000000000000000000815260016005820181905282516025928190039290920182205460028054602093811615610100026000190116819004601f8101849004840285018401909552848452600095606095879591949293928491908301828280156106035780601f106105d857610100808354040283529160200191610603565b820191906000526020600020905b8154815290600101906020018083116105e657829003601f168201915b50505050509150925092509250909192565b60045481565b606081426001826040518082805190602001908083835b602083106106515780518252601f199092019160209182019101610632565b51815160209384036101000a60001901801990921691161790529201948552506040519384900301909220549290921115915061068f905057600080fd5b6006600085600160a060020a0316600160a060020a03168152602001908152602001600020836040518082805190602001908083835b602083106106e45780518252601f1990920191602091820191016106c5565b518151600019602094850361010090810a820192831692199390931691909117909252949092019687526040805197889003820188208054601f60026001831615909802909501169590950492830182900482028801820190528187529294509250508301828280156107985780601f1061076d57610100808354040283529160200191610798565b820191906000526020600020905b81548152906001019060200180831161077b57829003601f168201915b505050505091505092915050565b80426001826040518082805190602001908083835b602083106107da5780518252601f1990920191602091820191016107bb565b51815160209384036101000a600019018019909216911617905292019485525060405193849003019092205492909210159150610818905057600080fd5b826006600033600160a060020a0316600160a060020a03168152602001908152602001600020836040518082805190602001908083835b6020831061086e5780518252601f19909201916020918201910161084f565b51815160209384036101000a600019018019909216911617905292019485525060405193849003810190932084516108af9591949190910192509050610c2e565b50505050565b600054600160a060020a031681565b60008054600160a060020a031633146108dc57600080fd5b303182106108e957600080fd5b60008054604051600160a060020a039091169184156108fc02918591818181858888f19350505050158015610922573d6000803e3d6000fd5b50600192915050565b60035481565b600054600160a060020a0316331461094857600080fd5b604080517f47726f75700000000000000000000000000000000000000000000000000000008152600160058201528151908190036025018120635b0a1de890556020808252601a908201527f47726f757020646174652070757420696e2074686520706173740000000000008183015290517fbeec2b037dad1d174192cfe357f7f7cafa04d5d6712c3cdd3b636ca22e61af479181900360600190a1565b6003543410156109f557600080fd5b6004805434019055600580546001810182556000919091527f036b6384b5eca791c62761152d0c79bb0604c104a5fb6f4eb0703f3154bb3db001805473ffffffffffffffffffffffffffffffffffffffff19163390811790915560408051918252517f31d3ac54da09405b02d1de0ee0de648de637fbdc111123be0d7fc31f2a544c0b9181900360200190a1565b60606006600033600160a060020a0316600160a060020a03168152602001908152602001600020826040518082805190602001908083835b60208310610ada5780518252601f199092019160209182019101610abb565b518151600019602094850361010090810a820192831692199390931691909117909252949092019687526040805197889003820188208054601f6002600183161590980290950116959095049283018290048202880182019052818752929450925050830182828015610b8e5780601f10610b6357610100808354040283529160200191610b8e565b820191906000526020600020905b815481529060010190602001808311610b7157829003601f168201915b50505050509050919050565b600054600160a060020a03163314610bb157600080fd5b600160a060020a0381161515610bc657600080fd5b60008054604051600160a060020a03808516939216917f8be0079c531659141344cd1fd0a4f28419497f9722a3daafe3b4186f6b6457e091a36000805473ffffffffffffffffffffffffffffffffffffffff1916600160a060020a0392909216919091179055565b828054600181600116156101000203166002900490600052602060002090601f016020900481019282601f10610c6f57805160ff1916838001178555610c9c565b82800160010185558215610c9c579182015b82811115610c9c578251825591602001919060010190610c81565b50610ca8929150610cac565b5090565b6104aa91905b80821115610ca85760008155600101610cb25600a165627a7a72305820396581318cb964acf82f6445939049396505cb41b840a1377b80715504f33cb20029",
  "source": "pragma solidity ^0.4.22;\n\nimport \"../node_modules/zeppelin-solidity/contracts/ownership/Ownable.sol\";\n\ncontract WCwagers is Ownable {\n    uint constant internal USDTOWEI  = 1666666666666666;\n    // 600$ is 1 ETH, but 1 ETH is on 18 digits so 1'000'000'000'000'000'000 / 600 = 166666666666666\n    // enum Phase {Group, Round16, Quarters, Semis, Finals}\n    //mapping (Phase => uint) phaseDates; //cannot use enum in mapping\n    mapping (string => uint) phaseDates;\n    string contestName;\n    uint public wagerSize;\n    uint public potSize;\n    address[] public participants;\n    // this maps the participants to a mapping of phase (string for phase enum) and URLs\n    mapping (address => mapping(string => string)) private usersURLs;\n\n    // constuctor takes in input the name of the contest (e.g. NagraStar, soccerNuts) and wager size in USD.\n    // The wager size will be converted to Ether using a fixed value\n    constructor(string _name, uint _wagerSize) public {\n        wagerSize = _wagerSize * USDTOWEI;\n        contestName = _name;\n\n        phaseDates[\"Group\"] = 1528991100; // 06/14/2018 15:45:00 UTC - 15 minutes before start of first group match\n        phaseDates[\"Round16\"] = 1530366300; // 06/30/2018 13:45:00 UTC - 15 minutes before start round of 16\n        phaseDates[\"Quarters\"] = 1530884700; // Friday, July 6, 2018 1:45:00 PM - 15 minutes before quarters\n        phaseDates[\"Semis\"] = 1531244700; // Tuesday, July 10, 2018 5:45:00 PM - 15 minutes before semis\n        phaseDates[\"Finals\"] = 1531575900; // Saturday, July 14, 2018 1:45:00 PM - 15 minutes before 3rd place match\n    }\n\n    function toggleTimePast() public onlyOwner {\n      phaseDates[\"Group\"] = 1527389672; // for testing, put this in the past\n      emit DebugStr(\"Group date put in the past\");\n    }\n\n    function getContestInfo() public view returns (uint _wagerSize, string _contestName, uint _firstPhaseDate) {\n        return (wagerSize, contestName, phaseDates[\"Group\"]);\n    }\n\n    function getWagerSize() public view returns (uint) {\n      return wagerSize;\n    }\n\n    function registerParticipant() public payable isAtLeastWagerSize() {\n        potSize += msg.value; // do I need this, or can I use this.balance to retrieve the pot size ?\n        participants.push(msg.sender);\n        emit ParticipantAdded(msg.sender);\n    }\n    event ParticipantAdded(address participant);\n    event DebugStr(string value);\n    event DebugInt(uint value);\n\n    function compareStrings (string a, string b) pure internal returns (bool){\n      if(bytes(a).length != bytes(b).length) {\n        return false;\n        } else\n        {\n            return keccak256(abi.encodePacked(a)) == keccak256(abi.encodePacked(b));\n        }\n       }\n\n    modifier isAtLeastWagerSize() {\n        require(msg.value >= wagerSize);\n        _;\n    }\n\n    modifier isThereTime(string _phase) {\n    //  emit DebugInt(phaseDates[_phase]);\n    //  emit DebugInt(block.timestamp);\n        require(phaseDates[_phase] >= block.timestamp);\n        _;\n    }\n    modifier isPhaseValid(string _phase) {\n      //require(compareStrings(_phase,\"Group\"));\n      require(compareStrings(_phase,\"Group\") || compareStrings(_phase,\"Round16\") || compareStrings(_phase,\"Quarters\") || compareStrings(_phase,\"Semis\") || compareStrings(_phase,\"Finals\"));\n        _;\n    }\n\n    modifier isItTimeYet(string _phase) {\n        require(phaseDates[_phase] <= block.timestamp);\n        _;\n    }\n\n    function writeURL(string _URL, string _phase) public isThereTime(_phase) {\n      usersURLs[msg.sender][_phase]=_URL;\n    }\n// Does it make sense to have this function?\n// If I want to retrieve my URLs before the deadline, this is what I'd use\n    function getOwnURL(string _phase) public view returns (string) {\n      //emit DebugStr(\"phase\");\n      //emit DebugStr(_phase);\n      //emit DebugStr(\"Stored URL\");\n      //emit DebugStr(usersURLs[msg.sender][_phase]);\n      return usersURLs[msg.sender][_phase];\n    }\n\n    function getURL(address _participant, string _phase) public view isItTimeYet(_phase) returns (string) {\n      return usersURLs[_participant][_phase];\n    }\n\n    function getParticipants() public view returns (address[]) {\n      return participants;\n    }\n\n    function payWinner(uint amount) public onlyOwner returns(bool) {\n         require(amount < address(this).balance);\n         owner.transfer(amount);\n         return true;\n         // how to account for gas ??\n\n     }\n\n}\n",
  "sourcePath": "/Users/joaoaguiam/Documents/Joao2017/Dev/pronostic/contracts/WCwagers.sol",
  "compiler": {
    "name": "solc",
    "version": "0.4.24+commit.e67f0147.Emscripten.clang"
  },
  "schemaVersion": "2.0.0",
  "updatedAt": "2018-05-29T05:39:13.921Z"
}