{
  "contractName": "WCwagers",
  "abi": [
    {
      "constant": true,
      "inputs": [],
      "name": "registrationFee",
      "outputs": [
        {
          "name": "",
          "type": "uint256"
        }
      ],
      "payable": false,
      "stateMutability": "view",
      "type": "function"
    },
    {
      "constant": true,
      "inputs": [],
      "name": "potSize",
      "outputs": [
        {
          "name": "",
          "type": "uint256"
        }
      ],
      "payable": false,
      "stateMutability": "view",
      "type": "function"
    },
    {
      "constant": true,
      "inputs": [
        {
          "name": "",
          "type": "address"
        }
      ],
      "name": "participantsNames",
      "outputs": [
        {
          "name": "",
          "type": "string"
        }
      ],
      "payable": false,
      "stateMutability": "view",
      "type": "function"
    },
    {
      "constant": true,
      "inputs": [],
      "name": "owner",
      "outputs": [
        {
          "name": "",
          "type": "address"
        }
      ],
      "payable": false,
      "stateMutability": "view",
      "type": "function"
    },
    {
      "constant": false,
      "inputs": [
        {
          "name": "newOwner",
          "type": "address"
        }
      ],
      "name": "transferOwnership",
      "outputs": [],
      "payable": false,
      "stateMutability": "nonpayable",
      "type": "function"
    },
    {
      "inputs": [
        {
          "name": "_name",
          "type": "string"
        },
        {
          "name": "_registrationFee",
          "type": "uint256"
        }
      ],
      "payable": false,
      "stateMutability": "nonpayable",
      "type": "constructor"
    },
    {
      "anonymous": false,
      "inputs": [
        {
          "indexed": false,
          "name": "participant",
          "type": "address"
        }
      ],
      "name": "ParticipantAdded",
      "type": "event"
    },
    {
      "anonymous": false,
      "inputs": [
        {
          "indexed": false,
          "name": "value",
          "type": "string"
        }
      ],
      "name": "DebugStr",
      "type": "event"
    },
    {
      "anonymous": false,
      "inputs": [
        {
          "indexed": false,
          "name": "value",
          "type": "uint256"
        }
      ],
      "name": "DebugInt",
      "type": "event"
    },
    {
      "anonymous": false,
      "inputs": [
        {
          "indexed": true,
          "name": "previousOwner",
          "type": "address"
        },
        {
          "indexed": true,
          "name": "newOwner",
          "type": "address"
        }
      ],
      "name": "OwnershipTransferred",
      "type": "event"
    },
    {
      "constant": false,
      "inputs": [],
      "name": "toggleTimePast",
      "outputs": [],
      "payable": false,
      "stateMutability": "nonpayable",
      "type": "function"
    },
    {
      "constant": true,
      "inputs": [],
      "name": "getContestInfo",
      "outputs": [
        {
          "name": "_registrationFee",
          "type": "uint256"
        },
        {
          "name": "_contestName",
          "type": "string"
        },
        {
          "name": "_firstPhaseDate",
          "type": "uint256"
        }
      ],
      "payable": false,
      "stateMutability": "view",
      "type": "function"
    },
    {
      "constant": true,
      "inputs": [
        {
          "name": "_phase",
          "type": "string"
        }
      ],
      "name": "getPhaseDate",
      "outputs": [
        {
          "name": "",
          "type": "uint256"
        }
      ],
      "payable": false,
      "stateMutability": "view",
      "type": "function"
    },
    {
      "constant": false,
      "inputs": [
        {
          "name": "nickname",
          "type": "string"
        }
      ],
      "name": "registerParticipant",
      "outputs": [],
      "payable": true,
      "stateMutability": "payable",
      "type": "function"
    },
    {
      "constant": false,
      "inputs": [
        {
          "name": "_URL",
          "type": "string"
        },
        {
          "name": "_phase",
          "type": "string"
        }
      ],
      "name": "writeURL",
      "outputs": [],
      "payable": false,
      "stateMutability": "nonpayable",
      "type": "function"
    },
    {
      "constant": true,
      "inputs": [
        {
          "name": "_phase",
          "type": "string"
        }
      ],
      "name": "getOwnURL",
      "outputs": [
        {
          "name": "",
          "type": "string"
        }
      ],
      "payable": false,
      "stateMutability": "view",
      "type": "function"
    },
    {
      "constant": true,
      "inputs": [
        {
          "name": "_participant",
          "type": "address"
        },
        {
          "name": "_phase",
          "type": "string"
        }
      ],
      "name": "getURL",
      "outputs": [
        {
          "name": "",
          "type": "string"
        }
      ],
      "payable": false,
      "stateMutability": "view",
      "type": "function"
    },
    {
      "constant": true,
      "inputs": [],
      "name": "getParticipants",
      "outputs": [
        {
          "name": "",
          "type": "address[]"
        }
      ],
      "payable": false,
      "stateMutability": "view",
      "type": "function"
    },
    {
      "constant": true,
      "inputs": [
        {
          "name": "_participant",
          "type": "address"
        }
      ],
      "name": "getNickname",
      "outputs": [
        {
          "name": "",
          "type": "string"
        }
      ],
      "payable": false,
      "stateMutability": "view",
      "type": "function"
    },
    {
      "constant": false,
      "inputs": [
        {
          "name": "_amount",
          "type": "uint256"
        },
        {
          "name": "_payee",
          "type": "address"
        }
      ],
      "name": "payWinner",
      "outputs": [],
      "payable": false,
      "stateMutability": "nonpayable",
      "type": "function"
    }
  ],
  "bytecode": "0x608060405234801561001057600080fd5b506040516111a73803806111a783398101604052805160208083015160008054600160a060020a031916331790556004819055919092018051909261005a91600391850190610192565b5050604080517f47726f757000000000000000000000000000000000000000000000000000000081526001600580830182905283519283900360259081018420635b228d7c90557f526f756e643136000000000000000000000000000000000000000000000000008452600784018390528451938490036027018420635b37895c90557f51756172746572730000000000000000000000000000000000000000000000008452600884018390528451938490036028018420635b3f725c90557f53656d69730000000000000000000000000000000000000000000000000000008452908301829052835192839003018220635b44f09c90557f46696e616c730000000000000000000000000000000000000000000000000000825260068201529051908190036026019020635b49fe5c90555061022d565b828054600181600116156101000203166002900490600052602060002090601f016020900481019282601f106101d357805160ff1916838001178555610200565b82800160010185558215610200579182015b828111156102005782518255916020019190600101906101e5565b5061020c929150610210565b5090565b61022a91905b8082111561020c5760008155600101610216565b90565b610f6b8061023c6000396000f3006080604052600436106100da5763ffffffff7c010000000000000000000000000000000000000000000000000000000060003504166314c44e0981146100df57806347b94f83146101065780635aa68ac01461012c578063647911961461019157806367daef6a1461022c57806368b6d55d146102855780636b76708f1461029a5780636fdc35691461037657806385b8dae4146103975780638da5cb5b1461042e578063adaccd741461045f578063b0f411fb14610480578063b3fbad5014610495578063cd75248e146104e1578063f2fde38b1461053a575b600080fd5b3480156100eb57600080fd5b506100f461055b565b60408051918252519081900360200190f35b34801561011257600080fd5b5061012a600435600160a060020a0360243516610561565b005b34801561013857600080fd5b506101416105e7565b60408051602080825283518183015283519192839290830191858101910280838360005b8381101561017d578181015183820152602001610165565b505050509050019250505060405180910390f35b34801561019d57600080fd5b506101a661064a565b6040518084815260200180602001838152602001828103825284818151815260200191508051906020019080838360005b838110156101ef5781810151838201526020016101d7565b50505050905090810190601f16801561021c5780820380516001836020036101000a031916815260200191505b5094505050505060405180910390f35b34801561023857600080fd5b506040805160206004803580820135601f81018490048402850184019095528484526100f494369492936024939284019190819084018382808284375094975061073b9650505050505050565b34801561029157600080fd5b506100f46107a3565b3480156102a657600080fd5b5060408051602060046024803582810135601f8101859004850286018501909652858552610301958335600160a060020a03169536956044949193909101919081908401838280828437509497506107a99650505050505050565b6040805160208082528351818301528351919283929083019185019080838360005b8381101561033b578181015183820152602001610323565b50505050905090810190601f1680156103685780820380516001836020036101000a031916815260200191505b509250505060405180910390f35b34801561038257600080fd5b50610301600160a060020a0360043516610934565b3480156103a357600080fd5b506040805160206004803580820135601f810184900484028501840190955284845261012a94369492936024939284019190819084018382808284375050604080516020601f89358b018035918201839004830284018301909452808352979a9998810197919650918201945092508291508401838280828437509497506109cd9650505050505050565b34801561043a57600080fd5b50610443610adc565b60408051600160a060020a039092168252519081900360200190f35b34801561046b57600080fd5b50610301600160a060020a0360043516610aeb565b34801561048c57600080fd5b5061012a610b94565b6040805160206004803580820135601f810184900484028501840190955284845261012a943694929360249392840191908190840183828082843750949750610c499650505050505050565b3480156104ed57600080fd5b506040805160206004803580820135601f8101849004840285018401909552848452610301943694929360249392840191908190840183828082843750949750610d339650505050505050565b34801561054657600080fd5b5061012a600160a060020a0360043516610e13565b60045481565b600054600160a060020a0316331461057857600080fd5b600160a060020a0381166000908152600260208190526040822054600019610100600183161502011604116105ac57600080fd5b604051600160a060020a0382169083156108fc029084906000818181858888f193505050501580156105e2573d6000803e3d6000fd5b505050565b6060600680548060200260200160405190810160405280929190818152602001828054801561063f57602002820191906000526020600020905b8154600160a060020a03168152600190910190602001808311610621575b505050505090505b90565b6000606060006004546003600160405180807f47726f75700000000000000000000000000000000000000000000000000000008152506005019050908152602001604051809103902054818054600181600116156101000203166002900480601f0160208091040260200160405190810160405280929190818152602001828054600181600116156101000203166002900480156107295780601f106106fe57610100808354040283529160200191610729565b820191906000526020600020905b81548152906001019060200180831161070c57829003601f168201915b50505050509150925092509250909192565b60006001826040518082805190602001908083835b6020831061076f5780518252601f199092019160209182019101610750565b51815160209384036101000a6000190180199092169116179052920194855250604051938490030190922054949350505050565b60055481565b606081426001826040518082805190602001908083835b602083106107df5780518252601f1990920191602091820191016107c0565b51815160209384036101000a60001901801990921691161790529201948552506040519384900301909220549290921115915061081d905057600080fd5b6007600085600160a060020a0316600160a060020a03168152602001908152602001600020836040518082805190602001908083835b602083106108725780518252601f199092019160209182019101610853565b518151600019602094850361010090810a820192831692199390931691909117909252949092019687526040805197889003820188208054601f60026001831615909802909501169590950492830182900482028801820190528187529294509250508301828280156109265780601f106108fb57610100808354040283529160200191610926565b820191906000526020600020905b81548152906001019060200180831161090957829003601f168201915b505050505091505092915050565b600260208181526000928352604092839020805484516001821615610100026000190190911693909304601f81018390048302840183019094528383529192908301828280156109c55780601f1061099a576101008083540402835291602001916109c5565b820191906000526020600020905b8154815290600101906020018083116109a857829003601f168201915b505050505081565b80426001826040518082805190602001908083835b60208310610a015780518252601f1990920191602091820191016109e2565b51815160209384036101000a600019018019909216911617905292019485525060405193849003019092205492909210159150610a3f905057600080fd5b826007600033600160a060020a0316600160a060020a03168152602001908152602001600020836040518082805190602001908083835b60208310610a955780518252601f199092019160209182019101610a76565b51815160209384036101000a60001901801990921691161790529201948552506040519384900381019093208451610ad69591949190910192509050610ea7565b50505050565b600054600160a060020a031681565b600160a060020a038116600090815260026020818152604092839020805484516001821615610100026000190190911693909304601f81018390048302840183019094528383526060939091830182828015610b885780601f10610b5d57610100808354040283529160200191610b88565b820191906000526020600020905b815481529060010190602001808311610b6b57829003601f168201915b50505050509050919050565b600054600160a060020a03163314610bab57600080fd5b604080517f47726f75700000000000000000000000000000000000000000000000000000008152600160058201528151908190036025018120635b0a1de890556020808252601a908201527f47726f757020646174652070757420696e2074686520706173740000000000008183015290517fbeec2b037dad1d174192cfe357f7f7cafa04d5d6712c3cdd3b636ca22e61af479181900360600190a1565b6004543390341015610c5a57600080fd5b600160a060020a03811660009081526002602081905260409091205460001961010060018316150201160415610c8f57600080fd5b60068054600181019091557ff652222313e28459528d920b65115c16c04f3efc82aaedc97be59f3f377c0d3f01805473ffffffffffffffffffffffffffffffffffffffff19163390811790915560009081526002602090815260409091208351610cfb92850190610ea7565b506040805133815290517f31d3ac54da09405b02d1de0ee0de648de637fbdc111123be0d7fc31f2a544c0b9181900360200190a15050565b60606007600033600160a060020a0316600160a060020a03168152602001908152602001600020826040518082805190602001908083835b60208310610d8a5780518252601f199092019160209182019101610d6b565b518151600019602094850361010090810a820192831692199390931691909117909252949092019687526040805197889003820188208054601f6002600183161590980290950116959095049283018290048202880182019052818752929450925050830182828015610b885780601f10610b5d57610100808354040283529160200191610b88565b600054600160a060020a03163314610e2a57600080fd5b600160a060020a0381161515610e3f57600080fd5b60008054604051600160a060020a03808516939216917f8be0079c531659141344cd1fd0a4f28419497f9722a3daafe3b4186f6b6457e091a36000805473ffffffffffffffffffffffffffffffffffffffff1916600160a060020a0392909216919091179055565b828054600181600116156101000203166002900490600052602060002090601f016020900481019282601f10610ee857805160ff1916838001178555610f15565b82800160010185558215610f15579182015b82811115610f15578251825591602001919060010190610efa565b50610f21929150610f25565b5090565b61064791905b80821115610f215760008155600101610f2b5600a165627a7a7230582018dc153186bfa87b59fec6434f3ae64f43b882ac5b5ddf7f59ef25e0df0fda9b0029",
  "source": "pragma solidity ^0.4.22;\n\nimport \"../node_modules/zeppelin-solidity/contracts/ownership/Ownable.sol\";\n//import \"../node_modules/zeppelin-solidity/contracts/math/SafeMath.sol\";\n\n\ncontract WCwagers is Ownable {\n    mapping (string => uint) phaseDates;\n    mapping (address => string) public participantsNames;\n    string contestName;\n    uint public registrationFee;\n    uint public potSize;\n    address[] participants;\n    // this maps the participants to a mapping of phase (string for phase enum) and URLs\n    mapping (address => mapping(string => string)) private usersURLs;\n\n    // constuctor takes in input the name of the contest (e.g. NagraStar, soccerNuts) and wager size in USD.\n    // The wager size will be converted to Ether using a fixed value\n    constructor(string _name, uint _registrationFee) public {\n        registrationFee = _registrationFee;\n        contestName = _name;\n\n        phaseDates[\"Group\"] = 1528991100; // 06/14/2018 15:45:00 UTC - 15 minutes before start of first group match\n        phaseDates[\"Round16\"] = 1530366300; // 06/30/2018 13:45:00 UTC - 15 minutes before start round of 16\n        phaseDates[\"Quarters\"] = 1530884700; // Friday, July 6, 2018 1:45:00 PM - 15 minutes before quarters\n        phaseDates[\"Semis\"] = 1531244700; // Tuesday, July 10, 2018 5:45:00 PM - 15 minutes before semis\n        phaseDates[\"Finals\"] = 1531575900; // Saturday, July 14, 2018 1:45:00 PM - 15 minutes before 3rd place match\n    }\n\n    function toggleTimePast() public onlyOwner {\n      phaseDates[\"Group\"] = 1527389672; // for testing, put this in the past\n      emit DebugStr(\"Group date put in the past\");\n    }\n\n    function getContestInfo() public view returns (uint _registrationFee, string _contestName, uint _firstPhaseDate) {\n        return (registrationFee, contestName, phaseDates[\"Group\"]);\n    }\n\n    function getPhaseDate(string _phase) public view returns (uint) {\n      return phaseDates[_phase];\n    }\n\n    /* function getregistrationFee() public view returns (uint) {\n      return registrationFee;\n    } */\n\n    function registerParticipant(string nickname) public payable isValidRegistration(msg.sender) {\n        participants.push(msg.sender);\n        participantsNames[msg.sender] = nickname;\n        emit ParticipantAdded(msg.sender);\n    }\n    event ParticipantAdded(address participant);\n    event DebugStr(string value);\n    event DebugInt(uint value);\n\n    /* function compareStrings (string a, string b) pure internal returns (bool){\n      if(bytes(a).length != bytes(b).length) {\n        return false;\n        } else\n        {\n            return keccak256(abi.encodePacked(a)) == keccak256(abi.encodePacked(b));\n        }\n       } */\n\n    modifier isValidRegistration(address _participant) {\n        require(msg.value >= registrationFee);\n        require(bytes(participantsNames[_participant]).length == 0);\n        _;\n    }\n\n    modifier isThereTime(string _phase) {\n    //  emit DebugInt(phaseDates[_phase]);\n    //  emit DebugInt(block.timestamp);\n        require(phaseDates[_phase] >= block.timestamp);\n        _;\n    }\n    /* modifier isPhaseValid(string _phase) {\n      //require(compareStrings(_phase,\"Group\"));\n      require(compareStrings(_phase,\"Group\") || compareStrings(_phase,\"Round16\") || compareStrings(_phase,\"Quarters\") || compareStrings(_phase,\"Semis\") || compareStrings(_phase,\"Finals\"));\n        _;\n    } */\n\n    modifier isItTimeYet(string _phase) {\n        require(phaseDates[_phase] <= block.timestamp);\n        _;\n    }\n\n    function writeURL(string _URL, string _phase) public isThereTime(_phase) {\n      usersURLs[msg.sender][_phase]=_URL;\n    }\n// Does it make sense to have this function?\n// If I want to retrieve my URLs before the deadline, this is what I'd use\n    function getOwnURL(string _phase) public view returns (string) {\n      //emit DebugStr(\"phase\");\n      //emit DebugStr(_phase);\n      //emit DebugStr(\"Stored URL\");\n      //emit DebugStr(usersURLs[msg.sender][_phase]);\n      return usersURLs[msg.sender][_phase];\n    }\n\n    function getURL(address _participant, string _phase) public view isItTimeYet(_phase) returns (string) {\n      return usersURLs[_participant][_phase];\n    }\n\n    function getParticipants() public view returns (address[]) {\n      return participants;\n    }\n\n    function getNickname(address _participant) public view returns (string) {\n      return participantsNames[_participant];\n    }\n\n    function payWinner(uint _amount, address _payee) public onlyOwner {\n      /* emit DebugStr(\"Amount in param\");\n      emit DebugInt(_amount);\n      emit DebugStr(\"Amount in contract\");\n      emit DebugInt(address(this).balance); */\n  //    require(_amount <= address(this).balance); // probably already handled by intrinsic mechanism\n      require(bytes(participantsNames[_payee]).length > 0);\n      _payee.transfer(_amount);\n\n     }\n\n}\n",
  "sourcePath": "/Users/joaoaguiam/Documents/Joao2017/Dev/pronostic/contracts/WCwagers.sol",
  "compiler": {
    "name": "solc",
    "version": "0.4.24+commit.e67f0147.Emscripten.clang"
  },
  "schemaVersion": "2.0.0",
  "updatedAt": "2018-06-26T23:29:43.359Z"
}