{
  "contractName": "WCwagers",
  "abi": [
    {
      "constant": true,
      "inputs": [],
      "name": "registrationFee",
      "outputs": [
        {
          "name": "",
          "type": "uint256"
        }
      ],
      "payable": false,
      "stateMutability": "view",
      "type": "function"
    },
    {
      "constant": true,
      "inputs": [],
      "name": "potSize",
      "outputs": [
        {
          "name": "",
          "type": "uint256"
        }
      ],
      "payable": false,
      "stateMutability": "view",
      "type": "function"
    },
    {
      "constant": true,
      "inputs": [
        {
          "name": "",
          "type": "address"
        }
      ],
      "name": "participantsNames",
      "outputs": [
        {
          "name": "",
          "type": "string"
        }
      ],
      "payable": false,
      "stateMutability": "view",
      "type": "function"
    },
    {
      "constant": true,
      "inputs": [],
      "name": "owner",
      "outputs": [
        {
          "name": "",
          "type": "address"
        }
      ],
      "payable": false,
      "stateMutability": "view",
      "type": "function"
    },
    {
      "constant": false,
      "inputs": [
        {
          "name": "newOwner",
          "type": "address"
        }
      ],
      "name": "transferOwnership",
      "outputs": [],
      "payable": false,
      "stateMutability": "nonpayable",
      "type": "function"
    },
    {
      "inputs": [
        {
          "name": "_name",
          "type": "string"
        },
        {
          "name": "_registrationFee",
          "type": "uint256"
        }
      ],
      "payable": false,
      "stateMutability": "nonpayable",
      "type": "constructor"
    },
    {
      "anonymous": false,
      "inputs": [
        {
          "indexed": false,
          "name": "participant",
          "type": "address"
        }
      ],
      "name": "ParticipantAdded",
      "type": "event"
    },
    {
      "anonymous": false,
      "inputs": [
        {
          "indexed": false,
          "name": "value",
          "type": "string"
        }
      ],
      "name": "DebugStr",
      "type": "event"
    },
    {
      "anonymous": false,
      "inputs": [
        {
          "indexed": false,
          "name": "value",
          "type": "uint256"
        }
      ],
      "name": "DebugInt",
      "type": "event"
    },
    {
      "anonymous": false,
      "inputs": [
        {
          "indexed": true,
          "name": "previousOwner",
          "type": "address"
        },
        {
          "indexed": true,
          "name": "newOwner",
          "type": "address"
        }
      ],
      "name": "OwnershipTransferred",
      "type": "event"
    },
    {
      "constant": false,
      "inputs": [],
      "name": "toggleTimePast",
      "outputs": [],
      "payable": false,
      "stateMutability": "nonpayable",
      "type": "function"
    },
    {
      "constant": true,
      "inputs": [],
      "name": "getContestInfo",
      "outputs": [
        {
          "name": "_registrationFee",
          "type": "uint256"
        },
        {
          "name": "_contestName",
          "type": "string"
        },
        {
          "name": "_firstPhaseDate",
          "type": "uint256"
        }
      ],
      "payable": false,
      "stateMutability": "view",
      "type": "function"
    },
    {
      "constant": false,
      "inputs": [
        {
          "name": "nickname",
          "type": "string"
        }
      ],
      "name": "registerParticipant",
      "outputs": [],
      "payable": true,
      "stateMutability": "payable",
      "type": "function"
    },
    {
      "constant": false,
      "inputs": [
        {
          "name": "_URL",
          "type": "string"
        },
        {
          "name": "_phase",
          "type": "string"
        }
      ],
      "name": "writeURL",
      "outputs": [],
      "payable": false,
      "stateMutability": "nonpayable",
      "type": "function"
    },
    {
      "constant": true,
      "inputs": [
        {
          "name": "_phase",
          "type": "string"
        }
      ],
      "name": "getOwnURL",
      "outputs": [
        {
          "name": "",
          "type": "string"
        }
      ],
      "payable": false,
      "stateMutability": "view",
      "type": "function"
    },
    {
      "constant": true,
      "inputs": [
        {
          "name": "_participant",
          "type": "address"
        },
        {
          "name": "_phase",
          "type": "string"
        }
      ],
      "name": "getURL",
      "outputs": [
        {
          "name": "",
          "type": "string"
        }
      ],
      "payable": false,
      "stateMutability": "view",
      "type": "function"
    },
    {
      "constant": true,
      "inputs": [],
      "name": "getParticipants",
      "outputs": [
        {
          "name": "",
          "type": "address[]"
        }
      ],
      "payable": false,
      "stateMutability": "view",
      "type": "function"
    },
    {
      "constant": true,
      "inputs": [
        {
          "name": "_participant",
          "type": "address"
        }
      ],
      "name": "getNickname",
      "outputs": [
        {
          "name": "",
          "type": "string"
        }
      ],
      "payable": false,
      "stateMutability": "view",
      "type": "function"
    },
    {
      "constant": false,
      "inputs": [
        {
          "name": "_amount",
          "type": "uint256"
        },
        {
          "name": "_payee",
          "type": "address"
        }
      ],
      "name": "payWinner",
      "outputs": [],
      "payable": false,
      "stateMutability": "nonpayable",
      "type": "function"
    }
  ],
  "bytecode": "0x608060405234801561001057600080fd5b506040516110db3803806110db83398101604052805160208083015160008054600160a060020a031916331790556004819055919092018051909261005a91600391850190610192565b5050604080517f47726f757000000000000000000000000000000000000000000000000000000081526001600580830182905283519283900360259081018420635b228d7c90557f526f756e643136000000000000000000000000000000000000000000000000008452600784018390528451938490036027018420635b37895c90557f51756172746572730000000000000000000000000000000000000000000000008452600884018390528451938490036028018420635b3f725c90557f53656d69730000000000000000000000000000000000000000000000000000008452908301829052835192839003018220635b44f09c90557f46696e616c730000000000000000000000000000000000000000000000000000825260068201529051908190036026019020635b49fe5c90555061022d565b828054600181600116156101000203166002900490600052602060002090601f016020900481019282601f106101d357805160ff1916838001178555610200565b82800160010185558215610200579182015b828111156102005782518255916020019190600101906101e5565b5061020c929150610210565b5090565b61022a91905b8082111561020c5760008155600101610216565b90565b610e9f8061023c6000396000f3006080604052600436106100cf5763ffffffff7c010000000000000000000000000000000000000000000000000000000060003504166314c44e0981146100d457806347b94f83146100fb5780635aa68ac014610121578063647911961461018657806368b6d55d146102215780636b76708f146102365780636fdc35691461031257806385b8dae4146103335780638da5cb5b146103ca578063adaccd74146103fb578063b0f411fb1461041c578063b3fbad5014610431578063cd75248e1461047d578063f2fde38b146104d6575b600080fd5b3480156100e057600080fd5b506100e96104f7565b60408051918252519081900360200190f35b34801561010757600080fd5b5061011f600435600160a060020a03602435166104fd565b005b34801561012d57600080fd5b50610136610583565b60408051602080825283518183015283519192839290830191858101910280838360005b8381101561017257818101518382015260200161015a565b505050509050019250505060405180910390f35b34801561019257600080fd5b5061019b6105e6565b6040518084815260200180602001838152602001828103825284818151815260200191508051906020019080838360005b838110156101e45781810151838201526020016101cc565b50505050905090810190601f1680156102115780820380516001836020036101000a031916815260200191505b5094505050505060405180910390f35b34801561022d57600080fd5b506100e96106d7565b34801561024257600080fd5b5060408051602060046024803582810135601f810185900485028601850190965285855261029d958335600160a060020a03169536956044949193909101919081908401838280828437509497506106dd9650505050505050565b6040805160208082528351818301528351919283929083019185019080838360005b838110156102d75781810151838201526020016102bf565b50505050905090810190601f1680156103045780820380516001836020036101000a031916815260200191505b509250505060405180910390f35b34801561031e57600080fd5b5061029d600160a060020a0360043516610868565b34801561033f57600080fd5b506040805160206004803580820135601f810184900484028501840190955284845261011f94369492936024939284019190819084018382808284375050604080516020601f89358b018035918201839004830284018301909452808352979a9998810197919650918201945092508291508401838280828437509497506109019650505050505050565b3480156103d657600080fd5b506103df610a10565b60408051600160a060020a039092168252519081900360200190f35b34801561040757600080fd5b5061029d600160a060020a0360043516610a1f565b34801561042857600080fd5b5061011f610ac8565b6040805160206004803580820135601f810184900484028501840190955284845261011f943694929360249392840191908190840183828082843750949750610b7d9650505050505050565b34801561048957600080fd5b506040805160206004803580820135601f810184900484028501840190955284845261029d943694929360249392840191908190840183828082843750949750610c679650505050505050565b3480156104e257600080fd5b5061011f600160a060020a0360043516610d47565b60045481565b600054600160a060020a0316331461051457600080fd5b600160a060020a03811660009081526002602081905260408220546000196101006001831615020116041161054857600080fd5b604051600160a060020a0382169083156108fc029084906000818181858888f1935050505015801561057e573d6000803e3d6000fd5b505050565b606060068054806020026020016040519081016040528092919081815260200182805480156105db57602002820191906000526020600020905b8154600160a060020a031681526001909101906020018083116105bd575b505050505090505b90565b6000606060006004546003600160405180807f47726f75700000000000000000000000000000000000000000000000000000008152506005019050908152602001604051809103902054818054600181600116156101000203166002900480601f0160208091040260200160405190810160405280929190818152602001828054600181600116156101000203166002900480156106c55780601f1061069a576101008083540402835291602001916106c5565b820191906000526020600020905b8154815290600101906020018083116106a857829003601f168201915b50505050509150925092509250909192565b60055481565b606081426001826040518082805190602001908083835b602083106107135780518252601f1990920191602091820191016106f4565b51815160209384036101000a600019018019909216911617905292019485525060405193849003019092205492909211159150610751905057600080fd5b6007600085600160a060020a0316600160a060020a03168152602001908152602001600020836040518082805190602001908083835b602083106107a65780518252601f199092019160209182019101610787565b518151600019602094850361010090810a820192831692199390931691909117909252949092019687526040805197889003820188208054601f600260018316159098029095011695909504928301829004820288018201905281875292945092505083018282801561085a5780601f1061082f5761010080835404028352916020019161085a565b820191906000526020600020905b81548152906001019060200180831161083d57829003601f168201915b505050505091505092915050565b600260208181526000928352604092839020805484516001821615610100026000190190911693909304601f81018390048302840183019094528383529192908301828280156108f95780601f106108ce576101008083540402835291602001916108f9565b820191906000526020600020905b8154815290600101906020018083116108dc57829003601f168201915b505050505081565b80426001826040518082805190602001908083835b602083106109355780518252601f199092019160209182019101610916565b51815160209384036101000a600019018019909216911617905292019485525060405193849003019092205492909210159150610973905057600080fd5b826007600033600160a060020a0316600160a060020a03168152602001908152602001600020836040518082805190602001908083835b602083106109c95780518252601f1990920191602091820191016109aa565b51815160209384036101000a60001901801990921691161790529201948552506040519384900381019093208451610a0a9591949190910192509050610ddb565b50505050565b600054600160a060020a031681565b600160a060020a038116600090815260026020818152604092839020805484516001821615610100026000190190911693909304601f81018390048302840183019094528383526060939091830182828015610abc5780601f10610a9157610100808354040283529160200191610abc565b820191906000526020600020905b815481529060010190602001808311610a9f57829003601f168201915b50505050509050919050565b600054600160a060020a03163314610adf57600080fd5b604080517f47726f75700000000000000000000000000000000000000000000000000000008152600160058201528151908190036025018120635b0a1de890556020808252601a908201527f47726f757020646174652070757420696e2074686520706173740000000000008183015290517fbeec2b037dad1d174192cfe357f7f7cafa04d5d6712c3cdd3b636ca22e61af479181900360600190a1565b6004543390341015610b8e57600080fd5b600160a060020a03811660009081526002602081905260409091205460001961010060018316150201160415610bc357600080fd5b60068054600181019091557ff652222313e28459528d920b65115c16c04f3efc82aaedc97be59f3f377c0d3f01805473ffffffffffffffffffffffffffffffffffffffff19163390811790915560009081526002602090815260409091208351610c2f92850190610ddb565b506040805133815290517f31d3ac54da09405b02d1de0ee0de648de637fbdc111123be0d7fc31f2a544c0b9181900360200190a15050565b60606007600033600160a060020a0316600160a060020a03168152602001908152602001600020826040518082805190602001908083835b60208310610cbe5780518252601f199092019160209182019101610c9f565b518151600019602094850361010090810a820192831692199390931691909117909252949092019687526040805197889003820188208054601f6002600183161590980290950116959095049283018290048202880182019052818752929450925050830182828015610abc5780601f10610a9157610100808354040283529160200191610abc565b600054600160a060020a03163314610d5e57600080fd5b600160a060020a0381161515610d7357600080fd5b60008054604051600160a060020a03808516939216917f8be0079c531659141344cd1fd0a4f28419497f9722a3daafe3b4186f6b6457e091a36000805473ffffffffffffffffffffffffffffffffffffffff1916600160a060020a0392909216919091179055565b828054600181600116156101000203166002900490600052602060002090601f016020900481019282601f10610e1c57805160ff1916838001178555610e49565b82800160010185558215610e49579182015b82811115610e49578251825591602001919060010190610e2e565b50610e55929150610e59565b5090565b6105e391905b80821115610e555760008155600101610e5f5600a165627a7a72305820a420d23344e061054ede7b8c1a4ee5ccbbe00cc36fc8709e09f7a0a9edb807fc0029",
  "source": "pragma solidity ^0.4.22;\n\nimport \"../node_modules/zeppelin-solidity/contracts/ownership/Ownable.sol\";\n//import \"../node_modules/zeppelin-solidity/contracts/math/SafeMath.sol\";\n\n\ncontract WCwagers is Ownable {\n    mapping (string => uint) phaseDates;\n    mapping (address => string) public participantsNames;\n    string contestName;\n    uint public registrationFee;\n    uint public potSize;\n    address[] participants;\n    // this maps the participants to a mapping of phase (string for phase enum) and URLs\n    mapping (address => mapping(string => string)) private usersURLs;\n\n    // constuctor takes in input the name of the contest (e.g. NagraStar, soccerNuts) and wager size in USD.\n    // The wager size will be converted to Ether using a fixed value\n    constructor(string _name, uint _registrationFee) public {\n        registrationFee = _registrationFee;\n        contestName = _name;\n\n        phaseDates[\"Group\"] = 1528991100; // 06/14/2018 15:45:00 UTC - 15 minutes before start of first group match\n        phaseDates[\"Round16\"] = 1530366300; // 06/30/2018 13:45:00 UTC - 15 minutes before start round of 16\n        phaseDates[\"Quarters\"] = 1530884700; // Friday, July 6, 2018 1:45:00 PM - 15 minutes before quarters\n        phaseDates[\"Semis\"] = 1531244700; // Tuesday, July 10, 2018 5:45:00 PM - 15 minutes before semis\n        phaseDates[\"Finals\"] = 1531575900; // Saturday, July 14, 2018 1:45:00 PM - 15 minutes before 3rd place match\n    }\n\n    function toggleTimePast() public onlyOwner {\n      phaseDates[\"Group\"] = 1527389672; // for testing, put this in the past\n      emit DebugStr(\"Group date put in the past\");\n    }\n\n    function getContestInfo() public view returns (uint _registrationFee, string _contestName, uint _firstPhaseDate) {\n        return (registrationFee, contestName, phaseDates[\"Group\"]);\n    }\n\n    /* function getregistrationFee() public view returns (uint) {\n      return registrationFee;\n    } */\n\n    function registerParticipant(string nickname) public payable isValidRegistration(msg.sender) {\n        participants.push(msg.sender);\n        participantsNames[msg.sender] = nickname;\n        emit ParticipantAdded(msg.sender);\n    }\n    event ParticipantAdded(address participant);\n    event DebugStr(string value);\n    event DebugInt(uint value);\n\n    /* function compareStrings (string a, string b) pure internal returns (bool){\n      if(bytes(a).length != bytes(b).length) {\n        return false;\n        } else\n        {\n            return keccak256(abi.encodePacked(a)) == keccak256(abi.encodePacked(b));\n        }\n       } */\n\n    modifier isValidRegistration(address _participant) {\n        require(msg.value >= registrationFee);\n        require(bytes(participantsNames[_participant]).length == 0);\n        _;\n    }\n\n    modifier isThereTime(string _phase) {\n    //  emit DebugInt(phaseDates[_phase]);\n    //  emit DebugInt(block.timestamp);\n        require(phaseDates[_phase] >= block.timestamp);\n        _;\n    }\n    /* modifier isPhaseValid(string _phase) {\n      //require(compareStrings(_phase,\"Group\"));\n      require(compareStrings(_phase,\"Group\") || compareStrings(_phase,\"Round16\") || compareStrings(_phase,\"Quarters\") || compareStrings(_phase,\"Semis\") || compareStrings(_phase,\"Finals\"));\n        _;\n    } */\n\n    modifier isItTimeYet(string _phase) {\n        require(phaseDates[_phase] <= block.timestamp);\n        _;\n    }\n\n    function writeURL(string _URL, string _phase) public isThereTime(_phase) {\n      usersURLs[msg.sender][_phase]=_URL;\n    }\n// Does it make sense to have this function?\n// If I want to retrieve my URLs before the deadline, this is what I'd use\n    function getOwnURL(string _phase) public view returns (string) {\n      //emit DebugStr(\"phase\");\n      //emit DebugStr(_phase);\n      //emit DebugStr(\"Stored URL\");\n      //emit DebugStr(usersURLs[msg.sender][_phase]);\n      return usersURLs[msg.sender][_phase];\n    }\n\n    function getURL(address _participant, string _phase) public view isItTimeYet(_phase) returns (string) {\n      return usersURLs[_participant][_phase];\n    }\n\n    function getParticipants() public view returns (address[]) {\n      return participants;\n    }\n\n    function getNickname(address _participant) public view returns (string) {\n      return participantsNames[_participant];\n    }\n\n    function payWinner(uint _amount, address _payee) public onlyOwner {\n      /* emit DebugStr(\"Amount in param\");\n      emit DebugInt(_amount);\n      emit DebugStr(\"Amount in contract\");\n      emit DebugInt(address(this).balance); */\n  //    require(_amount <= address(this).balance); // probably already handled by intrinsic mechanism\n      require(bytes(participantsNames[_payee]).length > 0);\n      _payee.transfer(_amount);\n\n     }\n\n}\n",
  "sourcePath": "/Users/joaoaguiam/Documents/Joao2017/Dev/pronostic/contracts/WCwagers.sol",
  "compiler": {
    "name": "solc",
    "version": "0.4.24+commit.e67f0147.Emscripten.clang"
  },
  "schemaVersion": "2.0.0",
  "updatedAt": "2018-05-31T07:07:27.858Z"
}