{
  "contractName": "WCwagers",
  "abi": [
    {
      "constant": true,
      "inputs": [],
      "name": "potSize",
      "outputs": [
        {
          "name": "",
          "type": "uint256"
        }
      ],
      "payable": false,
      "stateMutability": "view",
      "type": "function"
    },
    {
      "constant": true,
      "inputs": [
        {
          "name": "",
          "type": "address"
        }
      ],
      "name": "participantsNames",
      "outputs": [
        {
          "name": "",
          "type": "string"
        }
      ],
      "payable": false,
      "stateMutability": "view",
      "type": "function"
    },
    {
      "constant": true,
      "inputs": [],
      "name": "owner",
      "outputs": [
        {
          "name": "",
          "type": "address"
        }
      ],
      "payable": false,
      "stateMutability": "view",
      "type": "function"
    },
    {
      "constant": true,
      "inputs": [],
      "name": "wagerSize",
      "outputs": [
        {
          "name": "",
          "type": "uint256"
        }
      ],
      "payable": false,
      "stateMutability": "view",
      "type": "function"
    },
    {
      "constant": false,
      "inputs": [
        {
          "name": "newOwner",
          "type": "address"
        }
      ],
      "name": "transferOwnership",
      "outputs": [],
      "payable": false,
      "stateMutability": "nonpayable",
      "type": "function"
    },
    {
      "inputs": [
        {
          "name": "_name",
          "type": "string"
        },
        {
          "name": "_wagerSize",
          "type": "uint256"
        }
      ],
      "payable": false,
      "stateMutability": "nonpayable",
      "type": "constructor"
    },
    {
      "anonymous": false,
      "inputs": [
        {
          "indexed": false,
          "name": "participant",
          "type": "address"
        }
      ],
      "name": "ParticipantAdded",
      "type": "event"
    },
    {
      "anonymous": false,
      "inputs": [
        {
          "indexed": false,
          "name": "value",
          "type": "string"
        }
      ],
      "name": "DebugStr",
      "type": "event"
    },
    {
      "anonymous": false,
      "inputs": [
        {
          "indexed": false,
          "name": "value",
          "type": "uint256"
        }
      ],
      "name": "DebugInt",
      "type": "event"
    },
    {
      "anonymous": false,
      "inputs": [
        {
          "indexed": true,
          "name": "previousOwner",
          "type": "address"
        },
        {
          "indexed": true,
          "name": "newOwner",
          "type": "address"
        }
      ],
      "name": "OwnershipTransferred",
      "type": "event"
    },
    {
      "constant": false,
      "inputs": [],
      "name": "toggleTimePast",
      "outputs": [],
      "payable": false,
      "stateMutability": "nonpayable",
      "type": "function"
    },
    {
      "constant": true,
      "inputs": [],
      "name": "getContestInfo",
      "outputs": [
        {
          "name": "_wagerSize",
          "type": "uint256"
        },
        {
          "name": "_contestName",
          "type": "string"
        },
        {
          "name": "_firstPhaseDate",
          "type": "uint256"
        }
      ],
      "payable": false,
      "stateMutability": "view",
      "type": "function"
    },
    {
      "constant": true,
      "inputs": [],
      "name": "getWagerSize",
      "outputs": [
        {
          "name": "",
          "type": "uint256"
        }
      ],
      "payable": false,
      "stateMutability": "view",
      "type": "function"
    },
    {
      "constant": false,
      "inputs": [
        {
          "name": "nickname",
          "type": "string"
        }
      ],
      "name": "registerParticipant",
      "outputs": [],
      "payable": true,
      "stateMutability": "payable",
      "type": "function"
    },
    {
      "constant": false,
      "inputs": [
        {
          "name": "_URL",
          "type": "string"
        },
        {
          "name": "_phase",
          "type": "string"
        }
      ],
      "name": "writeURL",
      "outputs": [],
      "payable": false,
      "stateMutability": "nonpayable",
      "type": "function"
    },
    {
      "constant": true,
      "inputs": [
        {
          "name": "_phase",
          "type": "string"
        }
      ],
      "name": "getOwnURL",
      "outputs": [
        {
          "name": "",
          "type": "string"
        }
      ],
      "payable": false,
      "stateMutability": "view",
      "type": "function"
    },
    {
      "constant": true,
      "inputs": [
        {
          "name": "_participant",
          "type": "address"
        },
        {
          "name": "_phase",
          "type": "string"
        }
      ],
      "name": "getURL",
      "outputs": [
        {
          "name": "",
          "type": "string"
        }
      ],
      "payable": false,
      "stateMutability": "view",
      "type": "function"
    },
    {
      "constant": true,
      "inputs": [],
      "name": "getParticipants",
      "outputs": [
        {
          "name": "",
          "type": "address[]"
        }
      ],
      "payable": false,
      "stateMutability": "view",
      "type": "function"
    },
    {
      "constant": true,
      "inputs": [
        {
          "name": "_participant",
          "type": "address"
        }
      ],
      "name": "getNickname",
      "outputs": [
        {
          "name": "",
          "type": "string"
        }
      ],
      "payable": false,
      "stateMutability": "view",
      "type": "function"
    },
    {
      "constant": false,
      "inputs": [
        {
          "name": "_amount",
          "type": "uint256"
        },
        {
          "name": "_payee",
          "type": "address"
        }
      ],
      "name": "payWinner",
      "outputs": [],
      "payable": false,
      "stateMutability": "nonpayable",
      "type": "function"
    }
  ],
  "bytecode": "0x608060405234801561001057600080fd5b5060405161122f38038061122f83398101604052805160208083015160008054600160a060020a031916331790556605ebd312a02aaa810260045591909201805190926100629160039185019061019a565b5050604080517f47726f757000000000000000000000000000000000000000000000000000000081526001600580830182905283519283900360259081018420635b228d7c90557f526f756e643136000000000000000000000000000000000000000000000000008452600784018390528451938490036027018420635b37895c90557f51756172746572730000000000000000000000000000000000000000000000008452600884018390528451938490036028018420635b3f725c90557f53656d69730000000000000000000000000000000000000000000000000000008452908301829052835192839003018220635b44f09c90557f46696e616c730000000000000000000000000000000000000000000000000000825260068201529051908190036026019020635b49fe5c905550610235565b828054600181600116156101000203166002900490600052602060002090601f016020900481019282601f106101db57805160ff1916838001178555610208565b82800160010185558215610208579182015b828111156102085782518255916020019190600101906101ed565b50610214929150610218565b5090565b61023291905b80821115610214576000815560010161021e565b90565b610feb806102446000396000f3006080604052600436106100da5763ffffffff7c0100000000000000000000000000000000000000000000000000000000600035041663138da57581146100df57806347b94f83146101065780635aa68ac01461012c578063647911961461019157806368b6d55d1461022c5780636b76708f146102415780636fdc35691461031d57806385b8dae41461033e5780638da5cb5b146103d5578063adaccd7414610406578063ae03860114610427578063b0f411fb1461043c578063b3fbad5014610451578063cd75248e1461049d578063f2fde38b146104f6575b600080fd5b3480156100eb57600080fd5b506100f4610517565b60408051918252519081900360200190f35b34801561011257600080fd5b5061012a600435600160a060020a036024351661051e565b005b34801561013857600080fd5b506101416106cb565b60408051602080825283518183015283519192839290830191858101910280838360005b8381101561017d578181015183820152602001610165565b505050509050019250505060405180910390f35b34801561019d57600080fd5b506101a661072d565b6040518084815260200180602001838152602001828103825284818151815260200191508051906020019080838360005b838110156101ef5781810151838201526020016101d7565b50505050905090810190601f16801561021c5780820380516001836020036101000a031916815260200191505b5094505050505060405180910390f35b34801561023857600080fd5b506100f461081e565b34801561024d57600080fd5b5060408051602060046024803582810135601f81018590048502860185019096528585526102a8958335600160a060020a03169536956044949193909101919081908401838280828437509497506108249650505050505050565b6040805160208082528351818301528351919283929083019185019080838360005b838110156102e25781810151838201526020016102ca565b50505050905090810190601f16801561030f5780820380516001836020036101000a031916815260200191505b509250505060405180910390f35b34801561032957600080fd5b506102a8600160a060020a03600435166109af565b34801561034a57600080fd5b506040805160206004803580820135601f810184900484028501840190955284845261012a94369492936024939284019190819084018382808284375050604080516020601f89358b018035918201839004830284018301909452808352979a999881019791965091820194509250829150840183828082843750949750610a489650505050505050565b3480156103e157600080fd5b506103ea610b57565b60408051600160a060020a039092168252519081900360200190f35b34801561041257600080fd5b506102a8600160a060020a0360043516610b66565b34801561043357600080fd5b506100f4610c0f565b34801561044857600080fd5b5061012a610c15565b6040805160206004803580820135601f810184900484028501840190955284845261012a943694929360249392840191908190840183828082843750949750610cca9650505050505050565b3480156104a957600080fd5b506040805160206004803580820135601f81018490048402850184019095528484526102a8943694929360249392840191908190840183828082843750949750610db39650505050505050565b34801561050257600080fd5b5061012a600160a060020a0360043516610e93565b6004545b90565b600054600160a060020a0316331461053557600080fd5b604080516020808252600f908201527f416d6f756e7420696e20706172616d00000000000000000000000000000000008183015290517fbeec2b037dad1d174192cfe357f7f7cafa04d5d6712c3cdd3b636ca22e61af479181900360600190a16040805183815290517f66adb6b61689eb20abb744cb25721504c5861b418a77988e230daee31f7187e29181900360200190a16040805160208082526012908201527f416d6f756e7420696e20636f6e747261637400000000000000000000000000008183015290517fbeec2b037dad1d174192cfe357f7f7cafa04d5d6712c3cdd3b636ca22e61af479181900360600190a1604080513031815290517f66adb6b61689eb20abb744cb25721504c5861b418a77988e230daee31f7187e29181900360200190a1600160a060020a03811660009081526002602081905260408220546000196101006001831615020116041161069057600080fd5b604051600160a060020a0382169083156108fc029084906000818181858888f193505050501580156106c6573d6000803e3d6000fd5b505050565b6060600680548060200260200160405190810160405280929190818152602001828054801561072357602002820191906000526020600020905b8154600160a060020a03168152600190910190602001808311610705575b5050505050905090565b6000606060006004546003600160405180807f47726f75700000000000000000000000000000000000000000000000000000008152506005019050908152602001604051809103902054818054600181600116156101000203166002900480601f01602080910402602001604051908101604052809291908181526020018280546001816001161561010002031660029004801561080c5780601f106107e15761010080835404028352916020019161080c565b820191906000526020600020905b8154815290600101906020018083116107ef57829003601f168201915b50505050509150925092509250909192565b60055481565b606081426001826040518082805190602001908083835b6020831061085a5780518252601f19909201916020918201910161083b565b51815160209384036101000a600019018019909216911617905292019485525060405193849003019092205492909211159150610898905057600080fd5b6007600085600160a060020a0316600160a060020a03168152602001908152602001600020836040518082805190602001908083835b602083106108ed5780518252601f1990920191602091820191016108ce565b518151600019602094850361010090810a820192831692199390931691909117909252949092019687526040805197889003820188208054601f60026001831615909802909501169590950492830182900482028801820190528187529294509250508301828280156109a15780601f10610976576101008083540402835291602001916109a1565b820191906000526020600020905b81548152906001019060200180831161098457829003601f168201915b505050505091505092915050565b600260208181526000928352604092839020805484516001821615610100026000190190911693909304601f8101839004830284018301909452838352919290830182828015610a405780601f10610a1557610100808354040283529160200191610a40565b820191906000526020600020905b815481529060010190602001808311610a2357829003601f168201915b505050505081565b80426001826040518082805190602001908083835b60208310610a7c5780518252601f199092019160209182019101610a5d565b51815160209384036101000a600019018019909216911617905292019485525060405193849003019092205492909210159150610aba905057600080fd5b826007600033600160a060020a0316600160a060020a03168152602001908152602001600020836040518082805190602001908083835b60208310610b105780518252601f199092019160209182019101610af1565b51815160209384036101000a60001901801990921691161790529201948552506040519384900381019093208451610b519591949190910192509050610f27565b50505050565b600054600160a060020a031681565b600160a060020a038116600090815260026020818152604092839020805484516001821615610100026000190190911693909304601f81018390048302840183019094528383526060939091830182828015610c035780601f10610bd857610100808354040283529160200191610c03565b820191906000526020600020905b815481529060010190602001808311610be657829003601f168201915b50505050509050919050565b60045481565b600054600160a060020a03163314610c2c57600080fd5b604080517f47726f75700000000000000000000000000000000000000000000000000000008152600160058201528151908190036025018120635b0a1de890556020808252601a908201527f47726f757020646174652070757420696e2074686520706173740000000000008183015290517fbeec2b037dad1d174192cfe357f7f7cafa04d5d6712c3cdd3b636ca22e61af479181900360600190a1565b6004543390341015610cdb57600080fd5b600160a060020a038116600090815260026020819052604082205460001961010060018316150201160411610d0f57600080fd5b60068054600181019091557ff652222313e28459528d920b65115c16c04f3efc82aaedc97be59f3f377c0d3f01805473ffffffffffffffffffffffffffffffffffffffff19163390811790915560009081526002602090815260409091208351610d7b92850190610f27565b506040805133815290517f31d3ac54da09405b02d1de0ee0de648de637fbdc111123be0d7fc31f2a544c0b9181900360200190a15050565b60606007600033600160a060020a0316600160a060020a03168152602001908152602001600020826040518082805190602001908083835b60208310610e0a5780518252601f199092019160209182019101610deb565b518151600019602094850361010090810a820192831692199390931691909117909252949092019687526040805197889003820188208054601f6002600183161590980290950116959095049283018290048202880182019052818752929450925050830182828015610c035780601f10610bd857610100808354040283529160200191610c03565b600054600160a060020a03163314610eaa57600080fd5b600160a060020a0381161515610ebf57600080fd5b60008054604051600160a060020a03808516939216917f8be0079c531659141344cd1fd0a4f28419497f9722a3daafe3b4186f6b6457e091a36000805473ffffffffffffffffffffffffffffffffffffffff1916600160a060020a0392909216919091179055565b828054600181600116156101000203166002900490600052602060002090601f016020900481019282601f10610f6857805160ff1916838001178555610f95565b82800160010185558215610f95579182015b82811115610f95578251825591602001919060010190610f7a565b50610fa1929150610fa5565b5090565b61051b91905b80821115610fa15760008155600101610fab5600a165627a7a72305820ee5a0d678d4ac49c7ffa1642a83435fe9b84573c954970db824cd3a1246c52200029",
  "source": "pragma solidity ^0.4.22;\n\nimport \"../node_modules/zeppelin-solidity/contracts/ownership/Ownable.sol\";\n//import \"../node_modules/zeppelin-solidity/contracts/math/SafeMath.sol\";\n\n\ncontract WCwagers is Ownable {\n    uint constant internal USDTOWEI  = 1666666666666666;\n    // 600$ is 1 ETH, but 1 ETH is on 18 digits so 1'000'000'000'000'000'000 / 600 = 166666666666666\n    // enum Phase {Group, Round16, Quarters, Semis, Finals}\n    //mapping (Phase => uint) phaseDates; //cannot use enum in mapping\n    mapping (string => uint) phaseDates;\n    mapping (address => string) public participantsNames;\n    string contestName;\n    uint public wagerSize;\n    uint public potSize;\n    address[] participants;\n    // this maps the participants to a mapping of phase (string for phase enum) and URLs\n    mapping (address => mapping(string => string)) private usersURLs;\n\n    // constuctor takes in input the name of the contest (e.g. NagraStar, soccerNuts) and wager size in USD.\n    // The wager size will be converted to Ether using a fixed value\n    constructor(string _name, uint _wagerSize) public {\n        wagerSize = _wagerSize * USDTOWEI;\n        contestName = _name;\n\n        phaseDates[\"Group\"] = 1528991100; // 06/14/2018 15:45:00 UTC - 15 minutes before start of first group match\n        phaseDates[\"Round16\"] = 1530366300; // 06/30/2018 13:45:00 UTC - 15 minutes before start round of 16\n        phaseDates[\"Quarters\"] = 1530884700; // Friday, July 6, 2018 1:45:00 PM - 15 minutes before quarters\n        phaseDates[\"Semis\"] = 1531244700; // Tuesday, July 10, 2018 5:45:00 PM - 15 minutes before semis\n        phaseDates[\"Finals\"] = 1531575900; // Saturday, July 14, 2018 1:45:00 PM - 15 minutes before 3rd place match\n    }\n\n    function toggleTimePast() public onlyOwner {\n      phaseDates[\"Group\"] = 1527389672; // for testing, put this in the past\n      emit DebugStr(\"Group date put in the past\");\n    }\n\n    function getContestInfo() public view returns (uint _wagerSize, string _contestName, uint _firstPhaseDate) {\n        return (wagerSize, contestName, phaseDates[\"Group\"]);\n    }\n\n    function getWagerSize() public view returns (uint) {\n      return wagerSize;\n    }\n\n    function registerParticipant(string nickname) public payable isValidRegistration(msg.sender) {\n        participants.push(msg.sender);\n        participantsNames[msg.sender] = nickname;\n        emit ParticipantAdded(msg.sender);\n    }\n    event ParticipantAdded(address participant);\n    event DebugStr(string value);\n    event DebugInt(uint value);\n\n    /* function compareStrings (string a, string b) pure internal returns (bool){\n      if(bytes(a).length != bytes(b).length) {\n        return false;\n        } else\n        {\n            return keccak256(abi.encodePacked(a)) == keccak256(abi.encodePacked(b));\n        }\n       } */\n\n    modifier isValidRegistration(address _participant) {\n        require(msg.value >= wagerSize);\n        require(bytes(participantsNames[_participant]).length > 0);\n        _;\n    }\n\n    modifier isThereTime(string _phase) {\n    //  emit DebugInt(phaseDates[_phase]);\n    //  emit DebugInt(block.timestamp);\n        require(phaseDates[_phase] >= block.timestamp);\n        _;\n    }\n    /* modifier isPhaseValid(string _phase) {\n      //require(compareStrings(_phase,\"Group\"));\n      require(compareStrings(_phase,\"Group\") || compareStrings(_phase,\"Round16\") || compareStrings(_phase,\"Quarters\") || compareStrings(_phase,\"Semis\") || compareStrings(_phase,\"Finals\"));\n        _;\n    } */\n\n    modifier isItTimeYet(string _phase) {\n        require(phaseDates[_phase] <= block.timestamp);\n        _;\n    }\n\n    function writeURL(string _URL, string _phase) public isThereTime(_phase) {\n      usersURLs[msg.sender][_phase]=_URL;\n    }\n// Does it make sense to have this function?\n// If I want to retrieve my URLs before the deadline, this is what I'd use\n    function getOwnURL(string _phase) public view returns (string) {\n      //emit DebugStr(\"phase\");\n      //emit DebugStr(_phase);\n      //emit DebugStr(\"Stored URL\");\n      //emit DebugStr(usersURLs[msg.sender][_phase]);\n      return usersURLs[msg.sender][_phase];\n    }\n\n    function getURL(address _participant, string _phase) public view isItTimeYet(_phase) returns (string) {\n      return usersURLs[_participant][_phase];\n    }\n\n    function getParticipants() public view returns (address[]) {\n      return participants;\n    }\n\n    function getNickname(address _participant) public view returns (string) {\n      return participantsNames[_participant];\n    }\n\n    function payWinner(uint _amount, address _payee) public onlyOwner {\n      emit DebugStr(\"Amount in param\");\n      emit DebugInt(_amount);\n      emit DebugStr(\"Amount in contract\");\n      emit DebugInt(address(this).balance);\n  //    require(_amount <= address(this).balance); // probably already handled by intrinsic mechanism\n      require(bytes(participantsNames[_payee]).length > 0);\n      _payee.transfer(_amount);\n\n     }\n\n}\n",
  "sourcePath": "/Users/Jean-Marc/Ethereum-projects/WorldCup/pronostic/contracts/WCwagers.sol",
  "compiler": {
    "name": "solc",
    "version": "0.4.24+commit.e67f0147.Emscripten.clang"
  },
  "schemaVersion": "2.0.0",
  "updatedAt": "2018-05-31T03:47:37.109Z"
}