{
  "contractName": "WCwagers",
  "abi": [
    {
      "constant": true,
      "inputs": [
        {
          "name": "",
          "type": "uint256"
        }
      ],
      "name": "participants",
      "outputs": [
        {
          "name": "",
          "type": "address"
        }
      ],
      "payable": false,
      "stateMutability": "view",
      "type": "function"
    },
    {
      "constant": true,
      "inputs": [],
      "name": "potSize",
      "outputs": [
        {
          "name": "",
          "type": "uint256"
        }
      ],
      "payable": false,
      "stateMutability": "view",
      "type": "function"
    },
    {
      "constant": true,
      "inputs": [],
      "name": "owner",
      "outputs": [
        {
          "name": "",
          "type": "address"
        }
      ],
      "payable": false,
      "stateMutability": "view",
      "type": "function"
    },
    {
      "constant": true,
      "inputs": [],
      "name": "wagerSize",
      "outputs": [
        {
          "name": "",
          "type": "uint256"
        }
      ],
      "payable": false,
      "stateMutability": "view",
      "type": "function"
    },
    {
      "constant": false,
      "inputs": [
        {
          "name": "newOwner",
          "type": "address"
        }
      ],
      "name": "transferOwnership",
      "outputs": [],
      "payable": false,
      "stateMutability": "nonpayable",
      "type": "function"
    },
    {
      "inputs": [
        {
          "name": "_name",
          "type": "string"
        },
        {
          "name": "_wagerSize",
          "type": "uint256"
        }
      ],
      "payable": false,
      "stateMutability": "nonpayable",
      "type": "constructor"
    },
    {
      "anonymous": false,
      "inputs": [
        {
          "indexed": false,
          "name": "participant",
          "type": "address"
        }
      ],
      "name": "ParticipantAdded",
      "type": "event"
    },
    {
      "anonymous": false,
      "inputs": [
        {
          "indexed": true,
          "name": "previousOwner",
          "type": "address"
        },
        {
          "indexed": true,
          "name": "newOwner",
          "type": "address"
        }
      ],
      "name": "OwnershipTransferred",
      "type": "event"
    },
    {
      "constant": true,
      "inputs": [],
      "name": "getContestInfo",
      "outputs": [
        {
          "name": "_wagerSize",
          "type": "uint256"
        },
        {
          "name": "_contestName",
          "type": "string"
        },
        {
          "name": "_firstPhaseDate",
          "type": "uint256"
        }
      ],
      "payable": false,
      "stateMutability": "view",
      "type": "function"
    },
    {
      "constant": true,
      "inputs": [],
      "name": "getWagerSize",
      "outputs": [
        {
          "name": "",
          "type": "uint256"
        }
      ],
      "payable": false,
      "stateMutability": "view",
      "type": "function"
    },
    {
      "constant": false,
      "inputs": [],
      "name": "registerParticipant",
      "outputs": [],
      "payable": true,
      "stateMutability": "payable",
      "type": "function"
    },
    {
      "constant": false,
      "inputs": [
        {
          "name": "_URL",
          "type": "string"
        },
        {
          "name": "_phase",
          "type": "string"
        }
      ],
      "name": "writeURL",
      "outputs": [],
      "payable": false,
      "stateMutability": "nonpayable",
      "type": "function"
    },
    {
      "constant": true,
      "inputs": [
        {
          "name": "_phase",
          "type": "string"
        }
      ],
      "name": "getOwnURL",
      "outputs": [
        {
          "name": "",
          "type": "string"
        }
      ],
      "payable": false,
      "stateMutability": "view",
      "type": "function"
    },
    {
      "constant": true,
      "inputs": [
        {
          "name": "_participant",
          "type": "address"
        },
        {
          "name": "_phase",
          "type": "string"
        }
      ],
      "name": "getURL",
      "outputs": [
        {
          "name": "",
          "type": "string"
        }
      ],
      "payable": false,
      "stateMutability": "view",
      "type": "function"
    },
    {
      "constant": true,
      "inputs": [],
      "name": "getParticipants",
      "outputs": [
        {
          "name": "",
          "type": "address[]"
        }
      ],
      "payable": false,
      "stateMutability": "view",
      "type": "function"
    },
    {
      "constant": false,
      "inputs": [
        {
          "name": "amount",
          "type": "uint256"
        }
      ],
      "name": "payWinner",
      "outputs": [
        {
          "name": "",
          "type": "bool"
        }
      ],
      "payable": false,
      "stateMutability": "nonpayable",
      "type": "function"
    }
  ],
  "bytecode": "0x608060405234801561001057600080fd5b50604051610e61380380610e6183398101604052805160208083015160008054600160a060020a031916331790556605ebd312a02aaa810260035591909201805190926100629160029185019061019a565b5050604080517f47726f757000000000000000000000000000000000000000000000000000000081526001600580830182905283519283900360259081018420635b22d75090557f526f756e643136000000000000000000000000000000000000000000000000008452600784018390528451938490036027018420635b37e14090557f51756172746572730000000000000000000000000000000000000000000000008452600884018390528451938490036028018420635b3fca4090557f53656d69730000000000000000000000000000000000000000000000000000008452908301829052835192839003018220635b45488090557f46696e616c730000000000000000000000000000000000000000000000000000825260068201529051908190036026019020635b4a5640905550610235565b828054600181600116156101000203166002900490600052602060002090601f016020900481019282601f106101db57805160ff1916838001178555610208565b82800160010185558215610208579182015b828111156102085782518255916020019190600101906101ed565b50610214929150610218565b5090565b61023291905b80821115610214576000815560010161021e565b90565b610c1d806102446000396000f3006080604052600436106100c45763ffffffff7c0100000000000000000000000000000000000000000000000000000000600035041663138da57581146100c957806335c1d349146100f05780635aa68ac014610124578063647911961461018957806368b6d55d146102245780636b76708f1461023957806385b8dae4146103155780638da5cb5b146103ae578063a5c0449f146103c3578063ae038601146103ef578063ccfc811b14610404578063cd75248e1461040c578063f2fde38b14610465575b600080fd5b3480156100d557600080fd5b506100de610486565b60408051918252519081900360200190f35b3480156100fc57600080fd5b5061010860043561048d565b60408051600160a060020a039092168252519081900360200190f35b34801561013057600080fd5b506101396104b5565b60408051602080825283518183015283519192839290830191858101910280838360005b8381101561017557818101518382015260200161015d565b505050509050019250505060405180910390f35b34801561019557600080fd5b5061019e610517565b6040518084815260200180602001838152602001828103825284818151815260200191508051906020019080838360005b838110156101e75781810151838201526020016101cf565b50505050905090810190601f1680156102145780820380516001836020036101000a031916815260200191505b5094505050505060405180910390f35b34801561023057600080fd5b506100de6105f5565b34801561024557600080fd5b5060408051602060046024803582810135601f81018590048502860185019096528585526102a0958335600160a060020a03169536956044949193909101919081908401838280828437509497506105fb9650505050505050565b6040805160208082528351818301528351919283929083019185019080838360005b838110156102da5781810151838201526020016102c2565b50505050905090810190601f1680156103075780820380516001836020036101000a031916815260200191505b509250505060405180910390f35b34801561032157600080fd5b506040805160206004803580820135601f81018490048402850184019095528484526103ac94369492936024939284019190819084018382808284375050604080516020601f89358b018035918201839004830284018301909452808352979a9998810197919650918201945092508291508401838280828437509497506107869650505050505050565b005b3480156103ba57600080fd5b50610108610895565b3480156103cf57600080fd5b506103db6004356108a4565b604080519115158252519081900360200190f35b3480156103fb57600080fd5b506100de61090b565b6103ac610911565b34801561041857600080fd5b506040805160206004803580820135601f81018490048402850184019095528484526102a09436949293602493928401919081908401838280828437509497506109ae9650505050505050565b34801561047157600080fd5b506103ac600160a060020a0360043516610ac5565b6003545b90565b600580548290811061049b57fe5b600091825260209091200154600160a060020a0316905081565b6060600580548060200260200160405190810160405280929190818152602001828054801561050d57602002820191906000526020600020905b8154600160a060020a031681526001909101906020018083116104ef575b5050505050905090565b600354604080517f47726f7570000000000000000000000000000000000000000000000000000000815260016005820181905282516025928190039290920182205460028054602093811615610100026000190116819004601f8101849004840285018401909552848452600095606095879591949293928491908301828280156105e35780601f106105b8576101008083540402835291602001916105e3565b820191906000526020600020905b8154815290600101906020018083116105c657829003601f168201915b50505050509150925092509250909192565b60045481565b606081426001826040518082805190602001908083835b602083106106315780518252601f199092019160209182019101610612565b51815160209384036101000a60001901801990921691161790529201948552506040519384900301909220549290921015915061066f905057600080fd5b6006600085600160a060020a0316600160a060020a03168152602001908152602001600020836040518082805190602001908083835b602083106106c45780518252601f1990920191602091820191016106a5565b518151600019602094850361010090810a820192831692199390931691909117909252949092019687526040805197889003820188208054601f60026001831615909802909501169590950492830182900482028801820190528187529294509250508301828280156107785780601f1061074d57610100808354040283529160200191610778565b820191906000526020600020905b81548152906001019060200180831161075b57829003601f168201915b505050505091505092915050565b80426001826040518082805190602001908083835b602083106107ba5780518252601f19909201916020918201910161079b565b51815160209384036101000a6000190180199092169116179052920194855250604051938490030190922054929092111591506107f8905057600080fd5b826006600033600160a060020a0316600160a060020a03168152602001908152602001600020836040518082805190602001908083835b6020831061084e5780518252601f19909201916020918201910161082f565b51815160209384036101000a6000190180199092169116179052920194855250604051938490038101909320845161088f9591949190910192509050610b59565b50505050565b600054600160a060020a031681565b60008054600160a060020a031633146108bc57600080fd5b303182106108c957600080fd5b60008054604051600160a060020a039091169184156108fc02918591818181858888f19350505050158015610902573d6000803e3d6000fd5b50600192915050565b60035481565b60035434101561092057600080fd5b6004805434019055600580546001810182556000919091527f036b6384b5eca791c62761152d0c79bb0604c104a5fb6f4eb0703f3154bb3db001805473ffffffffffffffffffffffffffffffffffffffff19163390811790915560408051918252517f31d3ac54da09405b02d1de0ee0de648de637fbdc111123be0d7fc31f2a544c0b9181900360200190a1565b60606006600033600160a060020a0316600160a060020a03168152602001908152602001600020826040518082805190602001908083835b60208310610a055780518252601f1990920191602091820191016109e6565b518151600019602094850361010090810a820192831692199390931691909117909252949092019687526040805197889003820188208054601f6002600183161590980290950116959095049283018290048202880182019052818752929450925050830182828015610ab95780601f10610a8e57610100808354040283529160200191610ab9565b820191906000526020600020905b815481529060010190602001808311610a9c57829003601f168201915b50505050509050919050565b600054600160a060020a03163314610adc57600080fd5b600160a060020a0381161515610af157600080fd5b60008054604051600160a060020a03808516939216917f8be0079c531659141344cd1fd0a4f28419497f9722a3daafe3b4186f6b6457e091a36000805473ffffffffffffffffffffffffffffffffffffffff1916600160a060020a0392909216919091179055565b828054600181600116156101000203166002900490600052602060002090601f016020900481019282601f10610b9a57805160ff1916838001178555610bc7565b82800160010185558215610bc7579182015b82811115610bc7578251825591602001919060010190610bac565b50610bd3929150610bd7565b5090565b61048a91905b80821115610bd35760008155600101610bdd5600a165627a7a723058200fc8d0cce71f0fde9de7aceafcca2bb8db9768ad74b987b8c9c45377eb82d0500029",
  "source": "pragma solidity ^0.4.22;\n\nimport \"../node_modules/zeppelin-solidity/contracts/ownership/Ownable.sol\";\n\ncontract WCwagers is Ownable {\n    uint constant internal USDTOWEI  = 1666666666666666;\n    // 600$ is 1 ETH, but 1 ETH is on 18 digits so 1'000'000'000'000'000'000 / 600 = 166666666666666\n    // enum Phase {Group, Round16, Quarters, Semis, Finals}\n    //mapping (Phase => uint) phaseDates; //cannot use enum in mapping\n    mapping (string => uint) phaseDates;\n    string contestName;\n    uint public wagerSize;\n    uint public potSize;\n    address[] public participants;\n    // this maps the participants to a mapping of phase (string for phase enum) and URLs\n    mapping (address => mapping(string => string)) private usersURLs;\n\n    // constuctor takes in input the name of the contest (e.g. NagraStar, soccerNuts) and wager size in USD.\n    // The wager size will be converted to Ether using a fixed value\n    constructor(string _name, uint _wagerSize) public {\n        wagerSize = _wagerSize * USDTOWEI;\n        contestName = _name;\n        phaseDates[\"Group\"] = 1529010000;\n        phaseDates[\"Round16\"] = 1530388800;\n        phaseDates[\"Quarters\"] = 1530907200;\n        phaseDates[\"Semis\"] = 1531267200;\n        phaseDates[\"Finals\"] = 1531598400; // unix epoch dates for submission deadline\n    }\n\n    function getContestInfo() public view returns (uint _wagerSize, string _contestName, uint _firstPhaseDate) {\n        return (wagerSize, contestName, phaseDates[\"Group\"]);\n    }\n\n    function getWagerSize() public view returns (uint) {\n      return wagerSize;\n    }\n\n    function registerParticipant() public payable isAtLeastWagerSize() {\n        potSize += msg.value; // do I need this, or can I use this.balance to retrieve the pot size ?\n        participants.push(msg.sender);\n        emit ParticipantAdded(msg.sender);\n    }\n    event ParticipantAdded(address participant);\n    //event DebugStr(string value);\n    //event DebugInt(uint value);\n\n    modifier isAtLeastWagerSize() {\n        require(msg.value >= wagerSize);\n        _;\n    }\n\n    modifier isThereTime(string _phase) {\n        require(phaseDates[_phase] <= block.timestamp);\n        _;\n    }\n\n    modifier isItTimeYet(string _phase) {\n        require(phaseDates[_phase] >= block.timestamp);\n        _;\n    }\n\n\n    function writeURL(string _URL, string _phase) public isThereTime(_phase) {\n      usersURLs[msg.sender][_phase]=_URL;\n    }\n// Does it make sense to have this function?\n// If I want to retrieve my URLs before the deadline, this is what I'd use\n    function getOwnURL(string _phase) public view returns (string) {\n      return usersURLs[msg.sender][_phase];\n    }\n\n    function getURL(address _participant, string _phase) public view isItTimeYet(_phase) returns (string) {\n      return usersURLs[_participant][_phase];\n    }\n\n    function getParticipants() public view returns (address[]) {\n      return participants;\n    }\n\n    function payWinner(uint amount) public onlyOwner returns(bool) {\n         require(amount < address(this).balance);\n         owner.transfer(amount);\n         return true;\n         // how to account for gas ??\n\n     }\n\n}\n",
  "sourcePath": "/Users/Jean-Marc/Ethereum-projects/WorldCup/pronostic/contracts/WCwagers.sol",
  "compiler": {
    "name": "solc",
    "version": "0.4.24+commit.e67f0147.Emscripten.clang"
  },
  "schemaVersion": "2.0.0",
  "updatedAt": "2018-05-28T04:35:00.253Z"
}